{
  "_format": "hh-sol-artifact-1",
  "contractName": "FrogNFT",
  "sourceName": "contracts/FrogNFT.sol",
  "abi": [
    {
      "inputs": [
        {
          "internalType": "string",
          "name": "name",
          "type": "string"
        },
        {
          "internalType": "string",
          "name": "symbol",
          "type": "string"
        },
        {
          "internalType": "contract IERC20",
          "name": "token",
          "type": "address"
        }
      ],
      "stateMutability": "nonpayable",
      "type": "constructor"
    },
    {
      "anonymous": false,
      "inputs": [
        {
          "indexed": true,
          "internalType": "address",
          "name": "owner",
          "type": "address"
        },
        {
          "indexed": true,
          "internalType": "address",
          "name": "approved",
          "type": "address"
        },
        {
          "indexed": true,
          "internalType": "uint256",
          "name": "tokenId",
          "type": "uint256"
        }
      ],
      "name": "Approval",
      "type": "event"
    },
    {
      "anonymous": false,
      "inputs": [
        {
          "indexed": true,
          "internalType": "address",
          "name": "owner",
          "type": "address"
        },
        {
          "indexed": true,
          "internalType": "address",
          "name": "operator",
          "type": "address"
        },
        {
          "indexed": false,
          "internalType": "bool",
          "name": "approved",
          "type": "bool"
        }
      ],
      "name": "ApprovalForAll",
      "type": "event"
    },
    {
      "anonymous": false,
      "inputs": [
        {
          "indexed": true,
          "internalType": "address",
          "name": "previousOwner",
          "type": "address"
        },
        {
          "indexed": true,
          "internalType": "address",
          "name": "newOwner",
          "type": "address"
        }
      ],
      "name": "OwnershipTransferred",
      "type": "event"
    },
    {
      "anonymous": false,
      "inputs": [
        {
          "indexed": true,
          "internalType": "address",
          "name": "from",
          "type": "address"
        },
        {
          "indexed": true,
          "internalType": "address",
          "name": "to",
          "type": "address"
        },
        {
          "indexed": true,
          "internalType": "uint256",
          "name": "tokenId",
          "type": "uint256"
        }
      ],
      "name": "Transfer",
      "type": "event"
    },
    {
      "inputs": [],
      "name": "MAX_FROGS",
      "outputs": [
        {
          "internalType": "uint256",
          "name": "",
          "type": "uint256"
        }
      ],
      "stateMutability": "view",
      "type": "function"
    },
    {
      "inputs": [
        {
          "internalType": "address",
          "name": "to",
          "type": "address"
        },
        {
          "internalType": "uint256",
          "name": "tokenId",
          "type": "uint256"
        }
      ],
      "name": "approve",
      "outputs": [],
      "stateMutability": "nonpayable",
      "type": "function"
    },
    {
      "inputs": [
        {
          "internalType": "address",
          "name": "owner",
          "type": "address"
        }
      ],
      "name": "balanceOf",
      "outputs": [
        {
          "internalType": "uint256",
          "name": "",
          "type": "uint256"
        }
      ],
      "stateMutability": "view",
      "type": "function"
    },
    {
      "inputs": [],
      "name": "baseTokenURI",
      "outputs": [
        {
          "internalType": "string",
          "name": "",
          "type": "string"
        }
      ],
      "stateMutability": "pure",
      "type": "function"
    },
    {
      "inputs": [],
      "name": "buy",
      "outputs": [],
      "stateMutability": "payable",
      "type": "function"
    },
    {
      "inputs": [],
      "name": "frogPrice",
      "outputs": [
        {
          "internalType": "uint256",
          "name": "",
          "type": "uint256"
        }
      ],
      "stateMutability": "view",
      "type": "function"
    },
    {
      "inputs": [
        {
          "internalType": "uint256",
          "name": "tokenId",
          "type": "uint256"
        }
      ],
      "name": "getApproved",
      "outputs": [
        {
          "internalType": "address",
          "name": "",
          "type": "address"
        }
      ],
      "stateMutability": "view",
      "type": "function"
    },
    {
      "inputs": [
        {
          "internalType": "address",
          "name": "_owner",
          "type": "address"
        },
        {
          "internalType": "address",
          "name": "_operator",
          "type": "address"
        }
      ],
      "name": "isApprovedForAll",
      "outputs": [
        {
          "internalType": "bool",
          "name": "isOperator",
          "type": "bool"
        }
      ],
      "stateMutability": "view",
      "type": "function"
    },
    {
      "inputs": [],
      "name": "name",
      "outputs": [
        {
          "internalType": "string",
          "name": "",
          "type": "string"
        }
      ],
      "stateMutability": "view",
      "type": "function"
    },
    {
      "inputs": [],
      "name": "owner",
      "outputs": [
        {
          "internalType": "address",
          "name": "",
          "type": "address"
        }
      ],
      "stateMutability": "view",
      "type": "function"
    },
    {
      "inputs": [
        {
          "internalType": "uint256",
          "name": "tokenId",
          "type": "uint256"
        }
      ],
      "name": "ownerOf",
      "outputs": [
        {
          "internalType": "address",
          "name": "",
          "type": "address"
        }
      ],
      "stateMutability": "view",
      "type": "function"
    },
    {
      "inputs": [],
      "name": "renounceOwnership",
      "outputs": [],
      "stateMutability": "nonpayable",
      "type": "function"
    },
    {
      "inputs": [
        {
          "internalType": "address",
          "name": "from",
          "type": "address"
        },
        {
          "internalType": "address",
          "name": "to",
          "type": "address"
        },
        {
          "internalType": "uint256",
          "name": "tokenId",
          "type": "uint256"
        }
      ],
      "name": "safeTransferFrom",
      "outputs": [],
      "stateMutability": "nonpayable",
      "type": "function"
    },
    {
      "inputs": [
        {
          "internalType": "address",
          "name": "from",
          "type": "address"
        },
        {
          "internalType": "address",
          "name": "to",
          "type": "address"
        },
        {
          "internalType": "uint256",
          "name": "tokenId",
          "type": "uint256"
        },
        {
          "internalType": "bytes",
          "name": "_data",
          "type": "bytes"
        }
      ],
      "name": "safeTransferFrom",
      "outputs": [],
      "stateMutability": "nonpayable",
      "type": "function"
    },
    {
      "inputs": [
        {
          "internalType": "address",
          "name": "operator",
          "type": "address"
        },
        {
          "internalType": "bool",
          "name": "approved",
          "type": "bool"
        }
      ],
      "name": "setApprovalForAll",
      "outputs": [],
      "stateMutability": "nonpayable",
      "type": "function"
    },
    {
      "inputs": [
        {
          "internalType": "bytes4",
          "name": "interfaceId",
          "type": "bytes4"
        }
      ],
      "name": "supportsInterface",
      "outputs": [
        {
          "internalType": "bool",
          "name": "",
          "type": "bool"
        }
      ],
      "stateMutability": "view",
      "type": "function"
    },
    {
      "inputs": [],
      "name": "symbol",
      "outputs": [
        {
          "internalType": "string",
          "name": "",
          "type": "string"
        }
      ],
      "stateMutability": "view",
      "type": "function"
    },
    {
      "inputs": [
        {
          "internalType": "address",
          "name": "owner",
          "type": "address"
        },
        {
          "internalType": "uint256",
          "name": "index",
          "type": "uint256"
        }
      ],
      "name": "tokenOfOwnerByIndex",
      "outputs": [
        {
          "internalType": "uint256",
          "name": "",
          "type": "uint256"
        }
      ],
      "stateMutability": "view",
      "type": "function"
    },
    {
      "inputs": [
        {
          "internalType": "uint256",
          "name": "_tokenId",
          "type": "uint256"
        }
      ],
      "name": "tokenURI",
      "outputs": [
        {
          "internalType": "string",
          "name": "",
          "type": "string"
        }
      ],
      "stateMutability": "view",
      "type": "function"
    },
    {
      "inputs": [],
      "name": "totalSupply",
      "outputs": [
        {
          "internalType": "uint256",
          "name": "",
          "type": "uint256"
        }
      ],
      "stateMutability": "view",
      "type": "function"
    },
    {
      "inputs": [
        {
          "internalType": "address",
          "name": "from",
          "type": "address"
        },
        {
          "internalType": "address",
          "name": "to",
          "type": "address"
        },
        {
          "internalType": "uint256",
          "name": "tokenId",
          "type": "uint256"
        }
      ],
      "name": "transferFrom",
      "outputs": [],
      "stateMutability": "nonpayable",
      "type": "function"
    },
    {
      "inputs": [
        {
          "internalType": "address",
          "name": "newOwner",
          "type": "address"
        }
      ],
      "name": "transferOwnership",
      "outputs": [],
      "stateMutability": "nonpayable",
      "type": "function"
    }
  ],
  "bytecode": "0x60806040523480156200001157600080fd5b50604051620038233803806200382383398181016040528101906200003791906200050a565b8282816000908051906020019062000051929190620003d1565b5080600190805190602001906200006a929190620003d1565b5050506200008d62000081620000fc60201b60201c565b6200011860201b60201c565b80600760006101000a81548173ffffffffffffffffffffffffffffffffffffffff021916908373ffffffffffffffffffffffffffffffffffffffff160217905550620000f373344ddcfb83b643c83b8e834329a2e9203e6806b8620001de60201b60201c565b5050506200087f565b600062000113620002f460201b620010f51760201c565b905090565b6000600660009054906101000a900473ffffffffffffffffffffffffffffffffffffffff16905081600660006101000a81548173ffffffffffffffffffffffffffffffffffffffff021916908373ffffffffffffffffffffffffffffffffffffffff1602179055508173ffffffffffffffffffffffffffffffffffffffff168173ffffffffffffffffffffffffffffffffffffffff167f8be0079c531659141344cd1fd0a4f28419497f9722a3daafe3b4186f6b6457e060405160405180910390a35050565b620001ee620000fc60201b60201c565b73ffffffffffffffffffffffffffffffffffffffff1662000214620003a760201b60201c565b73ffffffffffffffffffffffffffffffffffffffff16146200026d576040517f08c379a0000000000000000000000000000000000000000000000000000000008152600401620002649062000602565b60405180910390fd5b600073ffffffffffffffffffffffffffffffffffffffff168173ffffffffffffffffffffffffffffffffffffffff161415620002e0576040517f08c379a0000000000000000000000000000000000000000000000000000000008152600401620002d790620005e0565b60405180910390fd5b620002f1816200011860201b60201c565b50565b60003073ffffffffffffffffffffffffffffffffffffffff163373ffffffffffffffffffffffffffffffffffffffff161415620003a057600080368080601f016020809104026020016040519081016040528093929190818152602001838380828437600081840152601f19601f820116905080830192505050505050509050600080369050905073ffffffffffffffffffffffffffffffffffffffff818301511692505050620003a4565b3390505b90565b6000600660009054906101000a900473ffffffffffffffffffffffffffffffffffffffff16905090565b828054620003df9062000712565b90600052602060002090601f0160209004810192826200040357600085556200044f565b82601f106200041e57805160ff19168380011785556200044f565b828001600101855582156200044f579182015b828111156200044e57825182559160200191906001019062000431565b5b5090506200045e919062000462565b5090565b5b808211156200047d57600081600090555060010162000463565b5090565b60006200049862000492846200064d565b62000624565b905082815260208101848484011115620004b157600080fd5b620004be848285620006dc565b509392505050565b600081519050620004d78162000865565b92915050565b600082601f830112620004ef57600080fd5b81516200050184826020860162000481565b91505092915050565b6000806000606084860312156200052057600080fd5b600084015167ffffffffffffffff8111156200053b57600080fd5b6200054986828701620004dd565b935050602084015167ffffffffffffffff8111156200056757600080fd5b6200057586828701620004dd565b92505060406200058886828701620004c6565b9150509250925092565b6000620005a160268362000683565b9150620005ae82620007ed565b604082019050919050565b6000620005c860208362000683565b9150620005d5826200083c565b602082019050919050565b60006020820190508181036000830152620005fb8162000592565b9050919050565b600060208201905081810360008301526200061d81620005b9565b9050919050565b60006200063062000643565b90506200063e828262000748565b919050565b6000604051905090565b600067ffffffffffffffff8211156200066b576200066a620007ad565b5b6200067682620007dc565b9050602081019050919050565b600082825260208201905092915050565b6000620006a182620006bc565b9050919050565b6000620006b58262000694565b9050919050565b600073ffffffffffffffffffffffffffffffffffffffff82169050919050565b60005b83811015620006fc578082015181840152602081019050620006df565b838111156200070c576000848401525b50505050565b600060028204905060018216806200072b57607f821691505b602082108114156200074257620007416200077e565b5b50919050565b6200075382620007dc565b810181811067ffffffffffffffff82111715620007755762000774620007ad565b5b80604052505050565b7f4e487b7100000000000000000000000000000000000000000000000000000000600052602260045260246000fd5b7f4e487b7100000000000000000000000000000000000000000000000000000000600052604160045260246000fd5b6000601f19601f8301169050919050565b7f4f776e61626c653a206e6577206f776e657220697320746865207a65726f206160008201527f6464726573730000000000000000000000000000000000000000000000000000602082015250565b7f4f776e61626c653a2063616c6c6572206973206e6f7420746865206f776e6572600082015250565b6200087081620006a8565b81146200087c57600080fd5b50565b612f94806200088f6000396000f3fe6080604052600436106101355760003560e01c8063715018a6116100ab578063b88d4fde1161006f578063b88d4fde14610407578063c87b56dd14610430578063d547cfb71461046d578063e985e9c514610498578063f2fde38b146104d5578063fa54374c146104fe57610135565b8063715018a6146103675780638da5cb5b1461037e57806395d89b41146103a9578063a22cb465146103d4578063a6f2ae3a146103fd57610135565b80631debda61116100fd5780631debda611461023357806323b872dd1461025e5780632f745c591461028757806342842e0e146102c45780636352211e146102ed57806370a082311461032a57610135565b806301ffc9a71461013a57806306fdde0314610177578063081812fc146101a2578063095ea7b3146101df57806318160ddd14610208575b600080fd5b34801561014657600080fd5b50610161600480360381019061015c9190612091565b610529565b60405161016e9190612488565b60405180910390f35b34801561018357600080fd5b5061018c61060b565b60405161019991906124a3565b60405180910390f35b3480156101ae57600080fd5b506101c960048036038101906101c491906120e3565b61069d565b6040516101d69190612421565b60405180910390f35b3480156101eb57600080fd5b5061020660048036038101906102019190612055565b610722565b005b34801561021457600080fd5b5061021d61083a565b60405161022a9190612705565b60405180910390f35b34801561023f57600080fd5b5061024861084b565b6040516102559190612705565b60405180910390f35b34801561026a57600080fd5b5061028560048036038101906102809190611f4f565b610856565b005b34801561029357600080fd5b506102ae60048036038101906102a99190612055565b6108b6565b6040516102bb9190612705565b60405180910390f35b3480156102d057600080fd5b506102eb60048036038101906102e69190611f4f565b610908565b005b3480156102f957600080fd5b50610314600480360381019061030f91906120e3565b610928565b6040516103219190612421565b60405180910390f35b34801561033657600080fd5b50610351600480360381019061034c9190611eea565b6109da565b60405161035e9190612705565b60405180910390f35b34801561037357600080fd5b5061037c610a92565b005b34801561038a57600080fd5b50610393610b1a565b6040516103a09190612421565b60405180910390f35b3480156103b557600080fd5b506103be610b44565b6040516103cb91906124a3565b60405180910390f35b3480156103e057600080fd5b506103fb60048036038101906103f69190612019565b610bd6565b005b610405610d57565b005b34801561041357600080fd5b5061042e60048036038101906104299190611f9e565b610eb6565b005b34801561043c57600080fd5b50610457600480360381019061045291906120e3565b610f18565b60405161046491906124a3565b60405180910390f35b34801561047957600080fd5b50610482610f71565b60405161048f91906124a3565b60405180910390f35b3480156104a457600080fd5b506104bf60048036038101906104ba9190611f13565b610f91565b6040516104cc9190612488565b60405180910390f35b3480156104e157600080fd5b506104fc60048036038101906104f79190611eea565b610ff7565b005b34801561050a57600080fd5b506105136110ef565b6040516105209190612705565b60405180910390f35b60007f80ac58cd000000000000000000000000000000000000000000000000000000007bffffffffffffffffffffffffffffffffffffffffffffffffffffffff1916827bffffffffffffffffffffffffffffffffffffffffffffffffffffffff191614806105f457507f5b5e139f000000000000000000000000000000000000000000000000000000007bffffffffffffffffffffffffffffffffffffffffffffffffffffffff1916827bffffffffffffffffffffffffffffffffffffffffffffffffffffffff1916145b806106045750610603826111a6565b5b9050919050565b60606000805461061a906128ee565b80601f0160208091040260200160405190810160405280929190818152602001828054610646906128ee565b80156106935780601f1061066857610100808354040283529160200191610693565b820191906000526020600020905b81548152906001019060200180831161067657829003601f168201915b5050505050905090565b60006106a882611210565b6106e7576040517f08c379a00000000000000000000000000000000000000000000000000000000081526004016106de90612645565b60405180910390fd5b6004600083815260200190815260200160002060009054906101000a900473ffffffffffffffffffffffffffffffffffffffff169050919050565b600061072d82610928565b90508073ffffffffffffffffffffffffffffffffffffffff168373ffffffffffffffffffffffffffffffffffffffff16141561079e576040517f08c379a0000000000000000000000000000000000000000000000000000000008152600401610795906126c5565b60405180910390fd5b8073ffffffffffffffffffffffffffffffffffffffff166107bd61127c565b73ffffffffffffffffffffffffffffffffffffffff1614806107ec57506107eb816107e661127c565b610f91565b5b61082b576040517f08c379a0000000000000000000000000000000000000000000000000000000008152600401610822906125a5565b60405180910390fd5b610835838361128b565b505050565b60006108466008611344565b905090565b662386f26fc1000081565b61086761086161127c565b82611359565b6108a6576040517f08c379a000000000000000000000000000000000000000000000000000000000815260040161089d906126e5565b60405180910390fd5b6108b1838383611437565b505050565b6000610900600b60008573ffffffffffffffffffffffffffffffffffffffff1673ffffffffffffffffffffffffffffffffffffffff16815260200190815260200160002083611693565b905092915050565b61092383838360405180602001604052806000815250610eb6565b505050565b6000806002600084815260200190815260200160002060009054906101000a900473ffffffffffffffffffffffffffffffffffffffff169050600073ffffffffffffffffffffffffffffffffffffffff168173ffffffffffffffffffffffffffffffffffffffff1614156109d1576040517f08c379a00000000000000000000000000000000000000000000000000000000081526004016109c8906125e5565b60405180910390fd5b80915050919050565b60008073ffffffffffffffffffffffffffffffffffffffff168273ffffffffffffffffffffffffffffffffffffffff161415610a4b576040517f08c379a0000000000000000000000000000000000000000000000000000000008152600401610a42906125c5565b60405180910390fd5b600360008373ffffffffffffffffffffffffffffffffffffffff1673ffffffffffffffffffffffffffffffffffffffff168152602001908152602001600020549050919050565b610a9a61127c565b73ffffffffffffffffffffffffffffffffffffffff16610ab8610b1a565b73ffffffffffffffffffffffffffffffffffffffff1614610b0e576040517f08c379a0000000000000000000000000000000000000000000000000000000008152600401610b0590612665565b60405180910390fd5b610b1860006116ad565b565b6000600660009054906101000a900473ffffffffffffffffffffffffffffffffffffffff16905090565b606060018054610b53906128ee565b80601f0160208091040260200160405190810160405280929190818152602001828054610b7f906128ee565b8015610bcc5780601f10610ba157610100808354040283529160200191610bcc565b820191906000526020600020905b815481529060010190602001808311610baf57829003601f168201915b5050505050905090565b610bde61127c565b73ffffffffffffffffffffffffffffffffffffffff168273ffffffffffffffffffffffffffffffffffffffff161415610c4c576040517f08c379a0000000000000000000000000000000000000000000000000000000008152600401610c4390612545565b60405180910390fd5b8060056000610c5961127c565b73ffffffffffffffffffffffffffffffffffffffff1673ffffffffffffffffffffffffffffffffffffffff16815260200190815260200160002060008473ffffffffffffffffffffffffffffffffffffffff1673ffffffffffffffffffffffffffffffffffffffff16815260200190815260200160002060006101000a81548160ff0219169083151502179055508173ffffffffffffffffffffffffffffffffffffffff16610d0661127c565b73ffffffffffffffffffffffffffffffffffffffff167f17307eab39ab6107e8899845ad3d59bd9653f200f220920489ca2b5937696c3183604051610d4b9190612488565b60405180910390a35050565b6103e86001610d6461083a565b610d6e91906127ae565b1115610daf576040517f08c379a0000000000000000000000000000000000000000000000000000000008152600401610da690612605565b60405180910390fd5b34662386f26fc100001115610df9576040517f08c379a0000000000000000000000000000000000000000000000000000000008152600401610df090612565565b60405180910390fd5b6000610e0361083a565b9050610e0f3382611773565b610e17610b1a565b73ffffffffffffffffffffffffffffffffffffffff166108fc349081150290604051600060405180830381858888f19350505050158015610e5c573d6000803e3d6000fd5b50610e6960088233611791565b50610eb2600b60003373ffffffffffffffffffffffffffffffffffffffff1673ffffffffffffffffffffffffffffffffffffffff168152602001908152602001600020826117c6565b5050565b610ec7610ec161127c565b83611359565b610f06576040517f08c379a0000000000000000000000000000000000000000000000000000000008152600401610efd906126e5565b60405180910390fd5b610f12848484846117e0565b50505050565b6060610f2382611210565b610f62576040517f08c379a0000000000000000000000000000000000000000000000000000000008152600401610f59906126a5565b60405180910390fd5b610f6a610f71565b9050919050565b6060604051806080016040528060438152602001612f1c60439139905090565b60007358807bad0b376efc12f5ad86aac70e78ed67deae73ffffffffffffffffffffffffffffffffffffffff168273ffffffffffffffffffffffffffffffffffffffff161415610fe45760019050610ff1565b610fee838361183c565b90505b92915050565b610fff61127c565b73ffffffffffffffffffffffffffffffffffffffff1661101d610b1a565b73ffffffffffffffffffffffffffffffffffffffff1614611073576040517f08c379a000000000000000000000000000000000000000000000000000000000815260040161106a90612665565b60405180910390fd5b600073ffffffffffffffffffffffffffffffffffffffff168173ffffffffffffffffffffffffffffffffffffffff1614156110e3576040517f08c379a00000000000000000000000000000000000000000000000000000000081526004016110da906124e5565b60405180910390fd5b6110ec816116ad565b50565b6103e881565b60003073ffffffffffffffffffffffffffffffffffffffff163373ffffffffffffffffffffffffffffffffffffffff16141561119f57600080368080601f016020809104026020016040519081016040528093929190818152602001838380828437600081840152601f19601f820116905080830192505050505050509050600080369050905073ffffffffffffffffffffffffffffffffffffffff8183015116925050506111a3565b3390505b90565b60007f01ffc9a7000000000000000000000000000000000000000000000000000000007bffffffffffffffffffffffffffffffffffffffffffffffffffffffff1916827bffffffffffffffffffffffffffffffffffffffffffffffffffffffff1916149050919050565b60008073ffffffffffffffffffffffffffffffffffffffff166002600084815260200190815260200160002060009054906101000a900473ffffffffffffffffffffffffffffffffffffffff1673ffffffffffffffffffffffffffffffffffffffff1614159050919050565b60006112866110f5565b905090565b816004600083815260200190815260200160002060006101000a81548173ffffffffffffffffffffffffffffffffffffffff021916908373ffffffffffffffffffffffffffffffffffffffff160217905550808273ffffffffffffffffffffffffffffffffffffffff166112fe83610928565b73ffffffffffffffffffffffffffffffffffffffff167f8c5be1e5ebec7d5bd14f71427d1e84f3dd0314c0f7b2291e5b200ac8c7c3b92560405160405180910390a45050565b6000611352826000016118d0565b9050919050565b600061136482611210565b6113a3576040517f08c379a000000000000000000000000000000000000000000000000000000000815260040161139a90612585565b60405180910390fd5b60006113ae83610928565b90508073ffffffffffffffffffffffffffffffffffffffff168473ffffffffffffffffffffffffffffffffffffffff16148061141d57508373ffffffffffffffffffffffffffffffffffffffff166114058461069d565b73ffffffffffffffffffffffffffffffffffffffff16145b8061142e575061142d8185610f91565b5b91505092915050565b8273ffffffffffffffffffffffffffffffffffffffff1661145782610928565b73ffffffffffffffffffffffffffffffffffffffff16146114ad576040517f08c379a00000000000000000000000000000000000000000000000000000000081526004016114a490612685565b60405180910390fd5b600073ffffffffffffffffffffffffffffffffffffffff168273ffffffffffffffffffffffffffffffffffffffff16141561151d576040517f08c379a000000000000000000000000000000000000000000000000000000000815260040161151490612525565b60405180910390fd5b6115288383836118e5565b61153360008261128b565b6001600360008573ffffffffffffffffffffffffffffffffffffffff1673ffffffffffffffffffffffffffffffffffffffff16815260200190815260200160002060008282546115839190612804565b925050819055506001600360008473ffffffffffffffffffffffffffffffffffffffff1673ffffffffffffffffffffffffffffffffffffffff16815260200190815260200160002060008282546115da91906127ae565b92505081905550816002600083815260200190815260200160002060006101000a81548173ffffffffffffffffffffffffffffffffffffffff021916908373ffffffffffffffffffffffffffffffffffffffff160217905550808273ffffffffffffffffffffffffffffffffffffffff168473ffffffffffffffffffffffffffffffffffffffff167fddf252ad1be2c89b69c2b068fc378daa952ba7f163c4a11628f55a4df523b3ef60405160405180910390a4505050565b60006116a283600001836118ea565b60001c905092915050565b6000600660009054906101000a900473ffffffffffffffffffffffffffffffffffffffff16905081600660006101000a81548173ffffffffffffffffffffffffffffffffffffffff021916908373ffffffffffffffffffffffffffffffffffffffff1602179055508173ffffffffffffffffffffffffffffffffffffffff168173ffffffffffffffffffffffffffffffffffffffff167f8be0079c531659141344cd1fd0a4f28419497f9722a3daafe3b4186f6b6457e060405160405180910390a35050565b61178d82826040518060200160405280600081525061193b565b5050565b60006117bd846000018460001b8473ffffffffffffffffffffffffffffffffffffffff1660001b611996565b90509392505050565b60006117d8836000018360001b6119d1565b905092915050565b6117eb848484611437565b6117f784848484611a41565b611836576040517f08c379a000000000000000000000000000000000000000000000000000000000815260040161182d906124c5565b60405180910390fd5b50505050565b6000600560008473ffffffffffffffffffffffffffffffffffffffff1673ffffffffffffffffffffffffffffffffffffffff16815260200190815260200160002060008373ffffffffffffffffffffffffffffffffffffffff1673ffffffffffffffffffffffffffffffffffffffff16815260200190815260200160002060009054906101000a900460ff16905092915050565b60006118de82600001611bd8565b9050919050565b505050565b6000826000018281548110611928577f4e487b7100000000000000000000000000000000000000000000000000000000600052603260045260246000fd5b9060005260206000200154905092915050565b6119458383611bed565b6119526000848484611a41565b611991576040517f08c379a0000000000000000000000000000000000000000000000000000000008152600401611988906124c5565b60405180910390fd5b505050565b600081846002016000858152602001908152602001600020819055506119c88385600001611dbb90919063ffffffff16565b90509392505050565b60006119dd8383611dd2565b611a36578260000182908060018154018082558091505060019003906000526020600020016000909190919091505582600001805490508360010160008481526020019081526020016000208190555060019050611a3b565b600090505b92915050565b6000611a628473ffffffffffffffffffffffffffffffffffffffff16611df5565b15611bcb578373ffffffffffffffffffffffffffffffffffffffff1663150b7a02611a8b61127c565b8786866040518563ffffffff1660e01b8152600401611aad949392919061243c565b602060405180830381600087803b158015611ac757600080fd5b505af1925050508015611af857506040513d601f19601f82011682018060405250810190611af591906120ba565b60015b611b7b573d8060008114611b28576040519150601f19603f3d011682016040523d82523d6000602084013e611b2d565b606091505b50600081511415611b73576040517f08c379a0000000000000000000000000000000000000000000000000000000008152600401611b6a906124c5565b60405180910390fd5b805181602001fd5b63150b7a0260e01b7bffffffffffffffffffffffffffffffffffffffffffffffffffffffff1916817bffffffffffffffffffffffffffffffffffffffffffffffffffffffff191614915050611bd0565b600190505b949350505050565b6000611be682600001611e08565b9050919050565b600073ffffffffffffffffffffffffffffffffffffffff168273ffffffffffffffffffffffffffffffffffffffff161415611c5d576040517f08c379a0000000000000000000000000000000000000000000000000000000008152600401611c5490612625565b60405180910390fd5b611c6681611210565b15611ca6576040517f08c379a0000000000000000000000000000000000000000000000000000000008152600401611c9d90612505565b60405180910390fd5b611cb2600083836118e5565b6001600360008473ffffffffffffffffffffffffffffffffffffffff1673ffffffffffffffffffffffffffffffffffffffff1681526020019081526020016000206000828254611d0291906127ae565b92505081905550816002600083815260200190815260200160002060006101000a81548173ffffffffffffffffffffffffffffffffffffffff021916908373ffffffffffffffffffffffffffffffffffffffff160217905550808273ffffffffffffffffffffffffffffffffffffffff16600073ffffffffffffffffffffffffffffffffffffffff167fddf252ad1be2c89b69c2b068fc378daa952ba7f163c4a11628f55a4df523b3ef60405160405180910390a45050565b6000611dca83600001836119d1565b905092915050565b600080836001016000848152602001908152602001600020541415905092915050565b600080823b905060008111915050919050565b600081600001805490509050919050565b6000611e2c611e2784612745565b612720565b905082815260208101848484011115611e4457600080fd5b611e4f8482856128ac565b509392505050565b600081359050611e6681612ebf565b92915050565b600081359050611e7b81612ed6565b92915050565b600081359050611e9081612eed565b92915050565b600081519050611ea581612eed565b92915050565b600082601f830112611ebc57600080fd5b8135611ecc848260208601611e19565b91505092915050565b600081359050611ee481612f04565b92915050565b600060208284031215611efc57600080fd5b6000611f0a84828501611e57565b91505092915050565b60008060408385031215611f2657600080fd5b6000611f3485828601611e57565b9250506020611f4585828601611e57565b9150509250929050565b600080600060608486031215611f6457600080fd5b6000611f7286828701611e57565b9350506020611f8386828701611e57565b9250506040611f9486828701611ed5565b9150509250925092565b60008060008060808587031215611fb457600080fd5b6000611fc287828801611e57565b9450506020611fd387828801611e57565b9350506040611fe487828801611ed5565b925050606085013567ffffffffffffffff81111561200157600080fd5b61200d87828801611eab565b91505092959194509250565b6000806040838503121561202c57600080fd5b600061203a85828601611e57565b925050602061204b85828601611e6c565b9150509250929050565b6000806040838503121561206857600080fd5b600061207685828601611e57565b925050602061208785828601611ed5565b9150509250929050565b6000602082840312156120a357600080fd5b60006120b184828501611e81565b91505092915050565b6000602082840312156120cc57600080fd5b60006120da84828501611e96565b91505092915050565b6000602082840312156120f557600080fd5b600061210384828501611ed5565b91505092915050565b61211581612838565b82525050565b6121248161284a565b82525050565b600061213582612776565b61213f818561278c565b935061214f8185602086016128bb565b612158816129de565b840191505092915050565b600061216e82612781565b612178818561279d565b93506121888185602086016128bb565b612191816129de565b840191505092915050565b60006121a960328361279d565b91506121b4826129ef565b604082019050919050565b60006121cc60268361279d565b91506121d782612a3e565b604082019050919050565b60006121ef601c8361279d565b91506121fa82612a8d565b602082019050919050565b600061221260248361279d565b915061221d82612ab6565b604082019050919050565b600061223560198361279d565b915061224082612b05565b602082019050919050565b6000612258601f8361279d565b915061226382612b2e565b602082019050919050565b600061227b602c8361279d565b915061228682612b57565b604082019050919050565b600061229e60388361279d565b91506122a982612ba6565b604082019050919050565b60006122c1602a8361279d565b91506122cc82612bf5565b604082019050919050565b60006122e460298361279d565b91506122ef82612c44565b604082019050919050565b600061230760218361279d565b915061231282612c93565b604082019050919050565b600061232a60208361279d565b915061233582612ce2565b602082019050919050565b600061234d602c8361279d565b915061235882612d0b565b604082019050919050565b600061237060208361279d565b915061237b82612d5a565b602082019050919050565b600061239360298361279d565b915061239e82612d83565b604082019050919050565b60006123b6602f8361279d565b91506123c182612dd2565b604082019050919050565b60006123d960218361279d565b91506123e482612e21565b604082019050919050565b60006123fc60318361279d565b915061240782612e70565b604082019050919050565b61241b816128a2565b82525050565b6000602082019050612436600083018461210c565b92915050565b6000608082019050612451600083018761210c565b61245e602083018661210c565b61246b6040830185612412565b818103606083015261247d818461212a565b905095945050505050565b600060208201905061249d600083018461211b565b92915050565b600060208201905081810360008301526124bd8184612163565b905092915050565b600060208201905081810360008301526124de8161219c565b9050919050565b600060208201905081810360008301526124fe816121bf565b9050919050565b6000602082019050818103600083015261251e816121e2565b9050919050565b6000602082019050818103600083015261253e81612205565b9050919050565b6000602082019050818103600083015261255e81612228565b9050919050565b6000602082019050818103600083015261257e8161224b565b9050919050565b6000602082019050818103600083015261259e8161226e565b9050919050565b600060208201905081810360008301526125be81612291565b9050919050565b600060208201905081810360008301526125de816122b4565b9050919050565b600060208201905081810360008301526125fe816122d7565b9050919050565b6000602082019050818103600083015261261e816122fa565b9050919050565b6000602082019050818103600083015261263e8161231d565b9050919050565b6000602082019050818103600083015261265e81612340565b9050919050565b6000602082019050818103600083015261267e81612363565b9050919050565b6000602082019050818103600083015261269e81612386565b9050919050565b600060208201905081810360008301526126be816123a9565b9050919050565b600060208201905081810360008301526126de816123cc565b9050919050565b600060208201905081810360008301526126fe816123ef565b9050919050565b600060208201905061271a6000830184612412565b92915050565b600061272a61273b565b90506127368282612920565b919050565b6000604051905090565b600067ffffffffffffffff8211156127605761275f6129af565b5b612769826129de565b9050602081019050919050565b600081519050919050565b600081519050919050565b600082825260208201905092915050565b600082825260208201905092915050565b60006127b9826128a2565b91506127c4836128a2565b9250827fffffffffffffffffffffffffffffffffffffffffffffffffffffffffffffffff038211156127f9576127f8612951565b5b828201905092915050565b600061280f826128a2565b915061281a836128a2565b92508282101561282d5761282c612951565b5b828203905092915050565b600061284382612882565b9050919050565b60008115159050919050565b60007fffffffff0000000000000000000000000000000000000000000000000000000082169050919050565b600073ffffffffffffffffffffffffffffffffffffffff82169050919050565b6000819050919050565b82818337600083830152505050565b60005b838110156128d95780820151818401526020810190506128be565b838111156128e8576000848401525b50505050565b6000600282049050600182168061290657607f821691505b6020821081141561291a57612919612980565b5b50919050565b612929826129de565b810181811067ffffffffffffffff82111715612948576129476129af565b5b80604052505050565b7f4e487b7100000000000000000000000000000000000000000000000000000000600052601160045260246000fd5b7f4e487b7100000000000000000000000000000000000000000000000000000000600052602260045260246000fd5b7f4e487b7100000000000000000000000000000000000000000000000000000000600052604160045260246000fd5b6000601f19601f8301169050919050565b7f4552433732313a207472616e7366657220746f206e6f6e20455243373231526560008201527f63656976657220696d706c656d656e7465720000000000000000000000000000602082015250565b7f4f776e61626c653a206e6577206f776e657220697320746865207a65726f206160008201527f6464726573730000000000000000000000000000000000000000000000000000602082015250565b7f4552433732313a20746f6b656e20616c7265616479206d696e74656400000000600082015250565b7f4552433732313a207472616e7366657220746f20746865207a65726f2061646460008201527f7265737300000000000000000000000000000000000000000000000000000000602082015250565b7f4552433732313a20617070726f766520746f2063616c6c657200000000000000600082015250565b7f45746865722076616c75652073656e74206973206e6f7420636f727265637400600082015250565b7f4552433732313a206f70657261746f7220717565727920666f72206e6f6e657860008201527f697374656e7420746f6b656e0000000000000000000000000000000000000000602082015250565b7f4552433732313a20617070726f76652063616c6c6572206973206e6f74206f7760008201527f6e6572206e6f7220617070726f76656420666f7220616c6c0000000000000000602082015250565b7f4552433732313a2062616c616e636520717565727920666f7220746865207a6560008201527f726f206164647265737300000000000000000000000000000000000000000000602082015250565b7f4552433732313a206f776e657220717565727920666f72206e6f6e657869737460008201527f656e7420746f6b656e0000000000000000000000000000000000000000000000602082015250565b7f43616e206e6f74206d696e74206d6f7265207468616e20313030302066726f6760008201527f7300000000000000000000000000000000000000000000000000000000000000602082015250565b7f4552433732313a206d696e7420746f20746865207a65726f2061646472657373600082015250565b7f4552433732313a20617070726f76656420717565727920666f72206e6f6e657860008201527f697374656e7420746f6b656e0000000000000000000000000000000000000000602082015250565b7f4f776e61626c653a2063616c6c6572206973206e6f7420746865206f776e6572600082015250565b7f4552433732313a207472616e73666572206f6620746f6b656e2074686174206960008201527f73206e6f74206f776e0000000000000000000000000000000000000000000000602082015250565b7f4552433732314d657461646174613a2055524920717565727920666f72206e6f60008201527f6e6578697374656e7420746f6b656e0000000000000000000000000000000000602082015250565b7f4552433732313a20617070726f76616c20746f2063757272656e74206f776e6560008201527f7200000000000000000000000000000000000000000000000000000000000000602082015250565b7f4552433732313a207472616e736665722063616c6c6572206973206e6f74206f60008201527f776e6572206e6f7220617070726f766564000000000000000000000000000000602082015250565b612ec881612838565b8114612ed357600080fd5b50565b612edf8161284a565b8114612eea57600080fd5b50565b612ef681612856565b8114612f0157600080fd5b50565b612f0d816128a2565b8114612f1857600080fd5b5056fe68747470733a2f2f697066732e696f2f697066732f516d534b4a4367344b655a74734d696e544c78334d7465465437334b34767a6175354339657866325a3965644253a2646970667358221220a3a5e0f295bf2e7f1706dcc9902df58b1f78ea08909a23b02aea9aa45767ae6864736f6c63430008040033",
  "linkReferences": {},
  "deployedLinkReferences": {}
}