{
  "_format": "hh-sol-artifact-1",
  "contractName": "Anura",
  "sourceName": "contracts/Anura.sol",
  "abi": [
    {
      "inputs": [],
      "stateMutability": "nonpayable",
      "type": "constructor"
    },
    {
      "anonymous": false,
      "inputs": [
        {
          "components": [
            {
              "internalType": "enum Anura.Eyewear",
              "name": "eyewear",
              "type": "uint8"
            },
            {
              "internalType": "enum Anura.Headwear",
              "name": "headwear",
              "type": "uint8"
            }
          ],
          "indexed": false,
          "internalType": "struct Anura.Anuran",
          "name": "character",
          "type": "tuple"
        }
      ],
      "name": "AnuranGenerated",
      "type": "event"
    },
    {
      "anonymous": false,
      "inputs": [
        {
          "indexed": true,
          "internalType": "address",
          "name": "owner",
          "type": "address"
        },
        {
          "indexed": true,
          "internalType": "address",
          "name": "approved",
          "type": "address"
        },
        {
          "indexed": true,
          "internalType": "uint256",
          "name": "tokenId",
          "type": "uint256"
        }
      ],
      "name": "Approval",
      "type": "event"
    },
    {
      "anonymous": false,
      "inputs": [
        {
          "indexed": true,
          "internalType": "address",
          "name": "owner",
          "type": "address"
        },
        {
          "indexed": true,
          "internalType": "address",
          "name": "operator",
          "type": "address"
        },
        {
          "indexed": false,
          "internalType": "bool",
          "name": "approved",
          "type": "bool"
        }
      ],
      "name": "ApprovalForAll",
      "type": "event"
    },
    {
      "anonymous": false,
      "inputs": [
        {
          "indexed": true,
          "internalType": "address",
          "name": "previousOwner",
          "type": "address"
        },
        {
          "indexed": true,
          "internalType": "address",
          "name": "newOwner",
          "type": "address"
        }
      ],
      "name": "OwnershipTransferred",
      "type": "event"
    },
    {
      "anonymous": false,
      "inputs": [
        {
          "indexed": true,
          "internalType": "address",
          "name": "from",
          "type": "address"
        },
        {
          "indexed": true,
          "internalType": "address",
          "name": "to",
          "type": "address"
        },
        {
          "indexed": true,
          "internalType": "uint256",
          "name": "tokenId",
          "type": "uint256"
        }
      ],
      "name": "Transfer",
      "type": "event"
    },
    {
      "inputs": [],
      "name": "LinkToken",
      "outputs": [
        {
          "internalType": "address",
          "name": "",
          "type": "address"
        }
      ],
      "stateMutability": "view",
      "type": "function"
    },
    {
      "inputs": [],
      "name": "MAX_FROGS",
      "outputs": [
        {
          "internalType": "uint256",
          "name": "",
          "type": "uint256"
        }
      ],
      "stateMutability": "view",
      "type": "function"
    },
    {
      "inputs": [],
      "name": "VRFCoordinator",
      "outputs": [
        {
          "internalType": "address",
          "name": "",
          "type": "address"
        }
      ],
      "stateMutability": "view",
      "type": "function"
    },
    {
      "inputs": [
        {
          "internalType": "address",
          "name": "to",
          "type": "address"
        },
        {
          "internalType": "uint256",
          "name": "tokenId",
          "type": "uint256"
        }
      ],
      "name": "approve",
      "outputs": [],
      "stateMutability": "nonpayable",
      "type": "function"
    },
    {
      "inputs": [
        {
          "internalType": "address",
          "name": "owner",
          "type": "address"
        }
      ],
      "name": "balanceOf",
      "outputs": [
        {
          "internalType": "uint256",
          "name": "",
          "type": "uint256"
        }
      ],
      "stateMutability": "view",
      "type": "function"
    },
    {
      "inputs": [],
      "name": "baseTokenURI",
      "outputs": [
        {
          "internalType": "string",
          "name": "",
          "type": "string"
        }
      ],
      "stateMutability": "pure",
      "type": "function"
    },
    {
      "inputs": [
        {
          "internalType": "uint256",
          "name": "",
          "type": "uint256"
        }
      ],
      "name": "characters",
      "outputs": [
        {
          "internalType": "enum Anura.Eyewear",
          "name": "eyewear",
          "type": "uint8"
        },
        {
          "internalType": "enum Anura.Headwear",
          "name": "headwear",
          "type": "uint8"
        }
      ],
      "stateMutability": "view",
      "type": "function"
    },
    {
      "inputs": [],
      "name": "frogPrice",
      "outputs": [
        {
          "internalType": "uint256",
          "name": "",
          "type": "uint256"
        }
      ],
      "stateMutability": "view",
      "type": "function"
    },
    {
      "inputs": [
        {
          "internalType": "uint256",
          "name": "tokenId",
          "type": "uint256"
        }
      ],
      "name": "getApproved",
      "outputs": [
        {
          "internalType": "address",
          "name": "",
          "type": "address"
        }
      ],
      "stateMutability": "view",
      "type": "function"
    },
    {
      "inputs": [
        {
          "internalType": "uint256",
          "name": "tokenId",
          "type": "uint256"
        }
      ],
      "name": "getCharacterOverView",
      "outputs": [
        {
          "components": [
            {
              "internalType": "enum Anura.Eyewear",
              "name": "eyewear",
              "type": "uint8"
            },
            {
              "internalType": "enum Anura.Headwear",
              "name": "headwear",
              "type": "uint8"
            }
          ],
          "internalType": "struct Anura.Anuran",
          "name": "",
          "type": "tuple"
        }
      ],
      "stateMutability": "view",
      "type": "function"
    },
    {
      "inputs": [],
      "name": "getNumberOfCharacters",
      "outputs": [
        {
          "internalType": "uint256",
          "name": "",
          "type": "uint256"
        }
      ],
      "stateMutability": "view",
      "type": "function"
    },
    {
      "inputs": [
        {
          "internalType": "address",
          "name": "_owner",
          "type": "address"
        },
        {
          "internalType": "address",
          "name": "_operator",
          "type": "address"
        }
      ],
      "name": "isApprovedForAll",
      "outputs": [
        {
          "internalType": "bool",
          "name": "isOperator",
          "type": "bool"
        }
      ],
      "stateMutability": "view",
      "type": "function"
    },
    {
      "inputs": [],
      "name": "mint",
      "outputs": [
        {
          "internalType": "bytes32",
          "name": "",
          "type": "bytes32"
        }
      ],
      "stateMutability": "payable",
      "type": "function"
    },
    {
      "inputs": [],
      "name": "name",
      "outputs": [
        {
          "internalType": "string",
          "name": "",
          "type": "string"
        }
      ],
      "stateMutability": "view",
      "type": "function"
    },
    {
      "inputs": [],
      "name": "owner",
      "outputs": [
        {
          "internalType": "address",
          "name": "",
          "type": "address"
        }
      ],
      "stateMutability": "view",
      "type": "function"
    },
    {
      "inputs": [
        {
          "internalType": "uint256",
          "name": "tokenId",
          "type": "uint256"
        }
      ],
      "name": "ownerOf",
      "outputs": [
        {
          "internalType": "address",
          "name": "",
          "type": "address"
        }
      ],
      "stateMutability": "view",
      "type": "function"
    },
    {
      "inputs": [],
      "name": "randomResult",
      "outputs": [
        {
          "internalType": "uint256",
          "name": "",
          "type": "uint256"
        }
      ],
      "stateMutability": "view",
      "type": "function"
    },
    {
      "inputs": [
        {
          "internalType": "bytes32",
          "name": "requestId",
          "type": "bytes32"
        },
        {
          "internalType": "uint256",
          "name": "randomness",
          "type": "uint256"
        }
      ],
      "name": "rawFulfillRandomness",
      "outputs": [],
      "stateMutability": "nonpayable",
      "type": "function"
    },
    {
      "inputs": [],
      "name": "renounceOwnership",
      "outputs": [],
      "stateMutability": "nonpayable",
      "type": "function"
    },
    {
      "inputs": [
        {
          "internalType": "address",
          "name": "from",
          "type": "address"
        },
        {
          "internalType": "address",
          "name": "to",
          "type": "address"
        },
        {
          "internalType": "uint256",
          "name": "tokenId",
          "type": "uint256"
        }
      ],
      "name": "safeTransferFrom",
      "outputs": [],
      "stateMutability": "nonpayable",
      "type": "function"
    },
    {
      "inputs": [
        {
          "internalType": "address",
          "name": "from",
          "type": "address"
        },
        {
          "internalType": "address",
          "name": "to",
          "type": "address"
        },
        {
          "internalType": "uint256",
          "name": "tokenId",
          "type": "uint256"
        },
        {
          "internalType": "bytes",
          "name": "_data",
          "type": "bytes"
        }
      ],
      "name": "safeTransferFrom",
      "outputs": [],
      "stateMutability": "nonpayable",
      "type": "function"
    },
    {
      "inputs": [
        {
          "internalType": "address",
          "name": "operator",
          "type": "address"
        },
        {
          "internalType": "bool",
          "name": "approved",
          "type": "bool"
        }
      ],
      "name": "setApprovalForAll",
      "outputs": [],
      "stateMutability": "nonpayable",
      "type": "function"
    },
    {
      "inputs": [
        {
          "internalType": "uint256",
          "name": "_tokenId",
          "type": "uint256"
        },
        {
          "internalType": "string",
          "name": "uri",
          "type": "string"
        }
      ],
      "name": "setTokenURI",
      "outputs": [],
      "stateMutability": "nonpayable",
      "type": "function"
    },
    {
      "inputs": [
        {
          "internalType": "bytes4",
          "name": "interfaceId",
          "type": "bytes4"
        }
      ],
      "name": "supportsInterface",
      "outputs": [
        {
          "internalType": "bool",
          "name": "",
          "type": "bool"
        }
      ],
      "stateMutability": "view",
      "type": "function"
    },
    {
      "inputs": [],
      "name": "symbol",
      "outputs": [
        {
          "internalType": "string",
          "name": "",
          "type": "string"
        }
      ],
      "stateMutability": "view",
      "type": "function"
    },
    {
      "inputs": [
        {
          "internalType": "address",
          "name": "owner",
          "type": "address"
        },
        {
          "internalType": "uint256",
          "name": "index",
          "type": "uint256"
        }
      ],
      "name": "tokenOfOwnerByIndex",
      "outputs": [
        {
          "internalType": "uint256",
          "name": "",
          "type": "uint256"
        }
      ],
      "stateMutability": "view",
      "type": "function"
    },
    {
      "inputs": [
        {
          "internalType": "uint256",
          "name": "_tokenId",
          "type": "uint256"
        }
      ],
      "name": "tokenURI",
      "outputs": [
        {
          "internalType": "string",
          "name": "",
          "type": "string"
        }
      ],
      "stateMutability": "view",
      "type": "function"
    },
    {
      "inputs": [],
      "name": "totalSupply",
      "outputs": [
        {
          "internalType": "uint256",
          "name": "",
          "type": "uint256"
        }
      ],
      "stateMutability": "view",
      "type": "function"
    },
    {
      "inputs": [
        {
          "internalType": "address",
          "name": "from",
          "type": "address"
        },
        {
          "internalType": "address",
          "name": "to",
          "type": "address"
        },
        {
          "internalType": "uint256",
          "name": "tokenId",
          "type": "uint256"
        }
      ],
      "name": "transferFrom",
      "outputs": [],
      "stateMutability": "nonpayable",
      "type": "function"
    },
    {
      "inputs": [
        {
          "internalType": "address",
          "name": "newOwner",
          "type": "address"
        }
      ],
      "name": "transferOwnership",
      "outputs": [],
      "stateMutability": "nonpayable",
      "type": "function"
    }
  ],
  "bytecode": "0x60c06040523480156200001157600080fd5b50738c7382f9d8f56b33781fe506e897a4f1e2d1725573326c977e6efc84e512bb9c30f76e30c160ed06fb6040518060400160405280600b81526020017f416e7572616e204d6f6e6b0000000000000000000000000000000000000000008152506040518060400160405280600381526020017f414e4d00000000000000000000000000000000000000000000000000000000008152508160009080519060200190620000c0929190620003e8565b508060019080519060200190620000d9929190620003e8565b5050508173ffffffffffffffffffffffffffffffffffffffff1660a08173ffffffffffffffffffffffffffffffffffffffff1660601b815250508073ffffffffffffffffffffffffffffffffffffffff1660808173ffffffffffffffffffffffffffffffffffffffff1660601b8152505050506200016c620001606200025360201b60201c565b6200026f60201b60201c565b738c7382f9d8f56b33781fe506e897a4f1e2d17255601060006101000a81548173ffffffffffffffffffffffffffffffffffffffff021916908373ffffffffffffffffffffffffffffffffffffffff16021790555073326c977e6efc84e512bb9c30f76e30c160ed06fb601160006101000a81548173ffffffffffffffffffffffffffffffffffffffff021916908373ffffffffffffffffffffffffffffffffffffffff1602179055507f6e75b569a01ef56d18cab6a8e71e6600d6ce853834d4a5748b720d06f878b3a460001b600d81905550655af3107a4000600e81905550620004fd565b60006200026a6200033560201b620017ff1760201c565b905090565b6000600760009054906101000a900473ffffffffffffffffffffffffffffffffffffffff16905081600760006101000a81548173ffffffffffffffffffffffffffffffffffffffff021916908373ffffffffffffffffffffffffffffffffffffffff1602179055508173ffffffffffffffffffffffffffffffffffffffff168173ffffffffffffffffffffffffffffffffffffffff167f8be0079c531659141344cd1fd0a4f28419497f9722a3daafe3b4186f6b6457e060405160405180910390a35050565b60003073ffffffffffffffffffffffffffffffffffffffff163373ffffffffffffffffffffffffffffffffffffffff161415620003e157600080368080601f016020809104026020016040519081016040528093929190818152602001838380828437600081840152601f19601f820116905080830192505050505050509050600080369050905073ffffffffffffffffffffffffffffffffffffffff818301511692505050620003e5565b3390505b90565b828054620003f69062000498565b90600052602060002090601f0160209004810192826200041a576000855562000466565b82601f106200043557805160ff191683800117855562000466565b8280016001018555821562000466579182015b828111156200046557825182559160200191906001019062000448565b5b50905062000475919062000479565b5090565b5b80821115620004945760008160009055506001016200047a565b5090565b60006002820490506001821680620004b157607f821691505b60208210811415620004c857620004c7620004ce565b5b50919050565b7f4e487b7100000000000000000000000000000000000000000000000000000000600052602260045260246000fd5b60805160601c60a05160601c61438262000537600039600081816112c30152611a8e015260008181610ab10152611a5201526143826000f3fe6080604052600436106101cd5760003560e01c80634f95b5f0116100f757806395d89b4111610095578063d547cfb711610064578063d547cfb714610692578063e985e9c5146106bd578063f2fde38b146106fa578063fa54374c14610723576101cd565b806395d89b41146105d8578063a22cb46514610603578063b88d4fde1461062c578063c87b56dd14610655576101cd565b806370a08231116100d157806370a0823114610530578063715018a61461056d5780638da5cb5b1461058457806394985ddd146105af576101cd565b80634f95b5f01461048b57806362d36dec146104c85780636352211e146104f3576101cd565b80631debda611161016f57806342619f661161013e57806342619f66146103ce57806342842e0e146103f95780634810bc59146104225780634f8e2fdf14610460576101cd565b80631debda611461031257806323b872dd1461033d5780632f745c591461036657806333b60863146103a3576101cd565b8063095ea7b3116101ab578063095ea7b3146102775780631249c58b146102a0578063162094c4146102be57806318160ddd146102e7576101cd565b806301ffc9a7146101d257806306fdde031461020f578063081812fc1461023a575b600080fd5b3480156101de57600080fd5b506101f960048036038101906101f49190612ea1565b61074e565b6040516102069190613564565b60405180910390f35b34801561021b57600080fd5b50610224610830565b6040516102319190613631565b60405180910390f35b34801561024657600080fd5b50610261600480360381019061025c9190612ef3565b6108c2565b60405161026e91906134bf565b60405180910390f35b34801561028357600080fd5b5061029e60048036038101906102999190612e00565b610947565b005b6102a8610a5f565b6040516102b5919061357f565b60405180910390f35b3480156102ca57600080fd5b506102e560048036038101906102e09190612f45565b610c9c565b005b3480156102f357600080fd5b506102fc610da6565b604051610309919061390e565b60405180910390f35b34801561031e57600080fd5b50610327610db3565b604051610334919061390e565b60405180910390f35b34801561034957600080fd5b50610364600480360381019061035f9190612cfa565b610dbe565b005b34801561037257600080fd5b5061038d60048036038101906103889190612e00565b610e1e565b60405161039a919061390e565b60405180910390f35b3480156103af57600080fd5b506103b8610e70565b6040516103c591906134bf565b60405180910390f35b3480156103da57600080fd5b506103e3610e96565b6040516103f0919061390e565b60405180910390f35b34801561040557600080fd5b50610420600480360381019061041b9190612cfa565b610e9c565b005b34801561042e57600080fd5b5061044960048036038101906104449190612ef3565b610ebc565b604051610457929190613608565b60405180910390f35b34801561046c57600080fd5b50610475610f06565b60405161048291906134bf565b60405180910390f35b34801561049757600080fd5b506104b260048036038101906104ad9190612ef3565b610f2c565b6040516104bf91906138f3565b60405180910390f35b3480156104d457600080fd5b506104dd611098565b6040516104ea919061390e565b60405180910390f35b3480156104ff57600080fd5b5061051a60048036038101906105159190612ef3565b6110a5565b60405161052791906134bf565b60405180910390f35b34801561053c57600080fd5b5061055760048036038101906105529190612c95565b611157565b604051610564919061390e565b60405180910390f35b34801561057957600080fd5b5061058261120f565b005b34801561059057600080fd5b50610599611297565b6040516105a691906134bf565b60405180910390f35b3480156105bb57600080fd5b506105d660048036038101906105d19190612e65565b6112c1565b005b3480156105e457600080fd5b506105ed61135d565b6040516105fa9190613631565b60405180910390f35b34801561060f57600080fd5b5061062a60048036038101906106259190612dc4565b6113ef565b005b34801561063857600080fd5b50610653600480360381019061064e9190612d49565b611570565b005b34801561066157600080fd5b5061067c60048036038101906106779190612ef3565b6115d2565b6040516106899190613631565b60405180910390f35b34801561069e57600080fd5b506106a761165e565b6040516106b49190613631565b60405180910390f35b3480156106c957600080fd5b506106e460048036038101906106df9190612cbe565b61169b565b6040516106f19190613564565b60405180910390f35b34801561070657600080fd5b50610721600480360381019061071c9190612c95565b611701565b005b34801561072f57600080fd5b506107386117f9565b604051610745919061390e565b60405180910390f35b60007f80ac58cd000000000000000000000000000000000000000000000000000000007bffffffffffffffffffffffffffffffffffffffffffffffffffffffff1916827bffffffffffffffffffffffffffffffffffffffffffffffffffffffff1916148061081957507f5b5e139f000000000000000000000000000000000000000000000000000000007bffffffffffffffffffffffffffffffffffffffffffffffffffffffff1916827bffffffffffffffffffffffffffffffffffffffffffffffffffffffff1916145b806108295750610828826118b0565b5b9050919050565b60606000805461083f90613b9c565b80601f016020809104026020016040519081016040528092919081815260200182805461086b90613b9c565b80156108b85780601f1061088d576101008083540402835291602001916108b8565b820191906000526020600020905b81548152906001019060200180831161089b57829003601f168201915b5050505050905090565b60006108cd8261191a565b61090c576040517f08c379a0000000000000000000000000000000000000000000000000000000008152600401610903906137f3565b60405180910390fd5b6004600083815260200190815260200160002060009054906101000a900473ffffffffffffffffffffffffffffffffffffffff169050919050565b6000610952826110a5565b90508073ffffffffffffffffffffffffffffffffffffffff168373ffffffffffffffffffffffffffffffffffffffff1614156109c3576040517f08c379a00000000000000000000000000000000000000000000000000000000081526004016109ba90613893565b60405180910390fd5b8073ffffffffffffffffffffffffffffffffffffffff166109e2611986565b73ffffffffffffffffffffffffffffffffffffffff161480610a115750610a1081610a0b611986565b61169b565b5b610a50576040517f08c379a0000000000000000000000000000000000000000000000000000000008152600401610a4790613773565b60405180910390fd5b610a5a8383611995565b505050565b60006103e8610a6c610da6565b10610aac576040517f08c379a0000000000000000000000000000000000000000000000000000000008152600401610aa3906136b3565b60405180910390fd5b600e547f000000000000000000000000000000000000000000000000000000000000000073ffffffffffffffffffffffffffffffffffffffff166370a08231306040518263ffffffff1660e01b8152600401610b0891906134bf565b60206040518083038186803b158015610b2057600080fd5b505afa158015610b34573d6000803e3d6000fd5b505050506040513d601f19601f82011682018060405250810190610b589190612f1c565b1015610b99576040517f08c379a0000000000000000000000000000000000000000000000000000000008152600401610b9090613713565b60405180910390fd5b34662386f26fc100001115610be3576040517f08c379a0000000000000000000000000000000000000000000000000000000008152600401610bda90613733565b60405180910390fd5b6000610bf3600d54600e54611a4e565b9050336013600083815260200190815260200160002060006101000a81548173ffffffffffffffffffffffffffffffffffffffff021916908373ffffffffffffffffffffffffffffffffffffffff160217905550610c4f611297565b73ffffffffffffffffffffffffffffffffffffffff166108fc349081150290604051600060405180830381858888f19350505050158015610c94573d6000803e3d6000fd5b508091505090565b610ca4611986565b73ffffffffffffffffffffffffffffffffffffffff16610cc2611297565b73ffffffffffffffffffffffffffffffffffffffff1614610d18576040517f08c379a0000000000000000000000000000000000000000000000000000000008152600401610d0f90613813565b60405180910390fd5b6000600c60008481526020019081526020016000208054610d3890613b9c565b905014610d7a576040517f08c379a0000000000000000000000000000000000000000000000000000000008152600401610d71906138b3565b60405180910390fd5b80600c60008481526020019081526020016000209080519060200190610da19291906129f0565b505050565b6000601280549050905090565b662386f26fc1000081565b610dcf610dc9611986565b82611bb0565b610e0e576040517f08c379a0000000000000000000000000000000000000000000000000000000008152600401610e05906138d3565b60405180910390fd5b610e19838383611c8e565b505050565b6000610e68600b60008573ffffffffffffffffffffffffffffffffffffffff1673ffffffffffffffffffffffffffffffffffffffff16815260200190815260200160002083611eea565b905092915050565b601060009054906101000a900473ffffffffffffffffffffffffffffffffffffffff1681565b600f5481565b610eb783838360405180602001604052806000815250611570565b505050565b60128181548110610ecc57600080fd5b906000526020600020016000915090508060000160009054906101000a900460ff16908060000160019054906101000a900460ff16905082565b601160009054906101000a900473ffffffffffffffffffffffffffffffffffffffff1681565b610f34612a76565b60128281548110610f6e577f4e487b7100000000000000000000000000000000000000000000000000000000600052603260045260246000fd5b906000526020600020016040518060400160405290816000820160009054906101000a900460ff166004811115610fce577f4e487b7100000000000000000000000000000000000000000000000000000000600052602160045260246000fd5b6004811115611006577f4e487b7100000000000000000000000000000000000000000000000000000000600052602160045260246000fd5b81526020016000820160019054906101000a900460ff16600a811115611055577f4e487b7100000000000000000000000000000000000000000000000000000000600052602160045260246000fd5b600a81111561108d577f4e487b7100000000000000000000000000000000000000000000000000000000600052602160045260246000fd5b815250509050919050565b6000601280549050905090565b6000806002600084815260200190815260200160002060009054906101000a900473ffffffffffffffffffffffffffffffffffffffff169050600073ffffffffffffffffffffffffffffffffffffffff168173ffffffffffffffffffffffffffffffffffffffff16141561114e576040517f08c379a0000000000000000000000000000000000000000000000000000000008152600401611145906137b3565b60405180910390fd5b80915050919050565b60008073ffffffffffffffffffffffffffffffffffffffff168273ffffffffffffffffffffffffffffffffffffffff1614156111c8576040517f08c379a00000000000000000000000000000000000000000000000000000000081526004016111bf90613793565b60405180910390fd5b600360008373ffffffffffffffffffffffffffffffffffffffff1673ffffffffffffffffffffffffffffffffffffffff168152602001908152602001600020549050919050565b611217611986565b73ffffffffffffffffffffffffffffffffffffffff16611235611297565b73ffffffffffffffffffffffffffffffffffffffff161461128b576040517f08c379a000000000000000000000000000000000000000000000000000000000815260040161128290613813565b60405180910390fd5b6112956000611f04565b565b6000600760009054906101000a900473ffffffffffffffffffffffffffffffffffffffff16905090565b7f000000000000000000000000000000000000000000000000000000000000000073ffffffffffffffffffffffffffffffffffffffff163373ffffffffffffffffffffffffffffffffffffffff161461134f576040517f08c379a000000000000000000000000000000000000000000000000000000000815260040161134690613873565b60405180910390fd5b6113598282611fca565b5050565b60606001805461136c90613b9c565b80601f016020809104026020016040519081016040528092919081815260200182805461139890613b9c565b80156113e55780601f106113ba576101008083540402835291602001916113e5565b820191906000526020600020905b8154815290600101906020018083116113c857829003601f168201915b5050505050905090565b6113f7611986565b73ffffffffffffffffffffffffffffffffffffffff168273ffffffffffffffffffffffffffffffffffffffff161415611465576040517f08c379a000000000000000000000000000000000000000000000000000000000815260040161145c906136f3565b60405180910390fd5b8060056000611472611986565b73ffffffffffffffffffffffffffffffffffffffff1673ffffffffffffffffffffffffffffffffffffffff16815260200190815260200160002060008473ffffffffffffffffffffffffffffffffffffffff1673ffffffffffffffffffffffffffffffffffffffff16815260200190815260200160002060006101000a81548160ff0219169083151502179055508173ffffffffffffffffffffffffffffffffffffffff1661151f611986565b73ffffffffffffffffffffffffffffffffffffffff167f17307eab39ab6107e8899845ad3d59bd9653f200f220920489ca2b5937696c31836040516115649190613564565b60405180910390a35050565b61158161157b611986565b83611bb0565b6115c0576040517f08c379a00000000000000000000000000000000000000000000000000000000081526004016115b7906138d3565b60405180910390fd5b6115cc84848484612316565b50505050565b60606115dd8261191a565b61161c576040517f08c379a000000000000000000000000000000000000000000000000000000000815260040161161390613853565b60405180910390fd5b61162461165e565b600c600084815260200190815260200160002060405160200161164892919061349b565b6040516020818303038152906040529050919050565b60606040518060400160405280601581526020017f68747470733a2f2f697066732e696f2f697066732f0000000000000000000000815250905090565b60007358807bad0b376efc12f5ad86aac70e78ed67deae73ffffffffffffffffffffffffffffffffffffffff168273ffffffffffffffffffffffffffffffffffffffff1614156116ee57600190506116fb565b6116f88383612372565b90505b92915050565b611709611986565b73ffffffffffffffffffffffffffffffffffffffff16611727611297565b73ffffffffffffffffffffffffffffffffffffffff161461177d576040517f08c379a000000000000000000000000000000000000000000000000000000000815260040161177490613813565b60405180910390fd5b600073ffffffffffffffffffffffffffffffffffffffff168173ffffffffffffffffffffffffffffffffffffffff1614156117ed576040517f08c379a00000000000000000000000000000000000000000000000000000000081526004016117e490613673565b60405180910390fd5b6117f681611f04565b50565b6103e881565b60003073ffffffffffffffffffffffffffffffffffffffff163373ffffffffffffffffffffffffffffffffffffffff1614156118a957600080368080601f016020809104026020016040519081016040528093929190818152602001838380828437600081840152601f19601f820116905080830192505050505050509050600080369050905073ffffffffffffffffffffffffffffffffffffffff8183015116925050506118ad565b3390505b90565b60007f01ffc9a7000000000000000000000000000000000000000000000000000000007bffffffffffffffffffffffffffffffffffffffffffffffffffffffff1916827bffffffffffffffffffffffffffffffffffffffffffffffffffffffff1916149050919050565b60008073ffffffffffffffffffffffffffffffffffffffff166002600084815260200190815260200160002060009054906101000a900473ffffffffffffffffffffffffffffffffffffffff1673ffffffffffffffffffffffffffffffffffffffff1614159050919050565b60006119906117ff565b905090565b816004600083815260200190815260200160002060006101000a81548173ffffffffffffffffffffffffffffffffffffffff021916908373ffffffffffffffffffffffffffffffffffffffff160217905550808273ffffffffffffffffffffffffffffffffffffffff16611a08836110a5565b73ffffffffffffffffffffffffffffffffffffffff167f8c5be1e5ebec7d5bd14f71427d1e84f3dd0314c0f7b2291e5b200ac8c7c3b92560405160405180910390a45050565b60007f000000000000000000000000000000000000000000000000000000000000000073ffffffffffffffffffffffffffffffffffffffff16634000aea07f000000000000000000000000000000000000000000000000000000000000000084866000604051602001611ac292919061359a565b6040516020818303038152906040526040518463ffffffff1660e01b8152600401611aef93929190613526565b602060405180830381600087803b158015611b0957600080fd5b505af1158015611b1d573d6000803e3d6000fd5b505050506040513d601f19601f82011682018060405250810190611b419190612e3c565b506000611b64846000306006600089815260200190815260200160002054612406565b905060016006600086815260200190815260200160002054611b869190613a08565b6006600086815260200190815260200160002081905550611ba78482612442565b91505092915050565b6000611bbb8261191a565b611bfa576040517f08c379a0000000000000000000000000000000000000000000000000000000008152600401611bf190613753565b60405180910390fd5b6000611c05836110a5565b90508073ffffffffffffffffffffffffffffffffffffffff168473ffffffffffffffffffffffffffffffffffffffff161480611c7457508373ffffffffffffffffffffffffffffffffffffffff16611c5c846108c2565b73ffffffffffffffffffffffffffffffffffffffff16145b80611c855750611c84818561169b565b5b91505092915050565b8273ffffffffffffffffffffffffffffffffffffffff16611cae826110a5565b73ffffffffffffffffffffffffffffffffffffffff1614611d04576040517f08c379a0000000000000000000000000000000000000000000000000000000008152600401611cfb90613833565b60405180910390fd5b600073ffffffffffffffffffffffffffffffffffffffff168273ffffffffffffffffffffffffffffffffffffffff161415611d74576040517f08c379a0000000000000000000000000000000000000000000000000000000008152600401611d6b906136d3565b60405180910390fd5b611d7f838383612475565b611d8a600082611995565b6001600360008573ffffffffffffffffffffffffffffffffffffffff1673ffffffffffffffffffffffffffffffffffffffff1681526020019081526020016000206000828254611dda9190613a5e565b925050819055506001600360008473ffffffffffffffffffffffffffffffffffffffff1673ffffffffffffffffffffffffffffffffffffffff1681526020019081526020016000206000828254611e319190613a08565b92505081905550816002600083815260200190815260200160002060006101000a81548173ffffffffffffffffffffffffffffffffffffffff021916908373ffffffffffffffffffffffffffffffffffffffff160217905550808273ffffffffffffffffffffffffffffffffffffffff168473ffffffffffffffffffffffffffffffffffffffff167fddf252ad1be2c89b69c2b068fc378daa952ba7f163c4a11628f55a4df523b3ef60405160405180910390a4505050565b6000611ef9836000018361247a565b60001c905092915050565b6000600760009054906101000a900473ffffffffffffffffffffffffffffffffffffffff16905081600760006101000a81548173ffffffffffffffffffffffffffffffffffffffff021916908373ffffffffffffffffffffffffffffffffffffffff1602179055508173ffffffffffffffffffffffffffffffffffffffff168173ffffffffffffffffffffffffffffffffffffffff167f8be0079c531659141344cd1fd0a4f28419497f9722a3daafe3b4186f6b6457e060405160405180910390a35050565b6000601280549050905060006005606484611fe59190613c13565b611fef9190613c13565b6004811115612027577f4e487b7100000000000000000000000000000000000000000000000000000000600052602160045260246000fd5b90506000600b6127108561203b9190613c13565b6120459190613c13565b600a81111561207d577f4e487b7100000000000000000000000000000000000000000000000000000000600052602160045260246000fd5b9050600060405180604001604052808460048111156120c5577f4e487b7100000000000000000000000000000000000000000000000000000000600052602160045260246000fd5b815260200183600a811115612103577f4e487b7100000000000000000000000000000000000000000000000000000000600052602160045260246000fd5b81525090506012819080600181540180825580915050600190039060005260206000200160009091909190915060008201518160000160006101000a81548160ff02191690836004811115612181577f4e487b7100000000000000000000000000000000000000000000000000000000600052602160045260246000fd5b021790555060208201518160000160016101000a81548160ff0219169083600a8111156121d7577f4e487b7100000000000000000000000000000000000000000000000000000000600052602160045260246000fd5b0217905550505061221b6013600088815260200190815260200160002060009054906101000a900473ffffffffffffffffffffffffffffffffffffffff16856124cb565b61225a600885601360008a815260200190815260200160002060009054906101000a900473ffffffffffffffffffffffffffffffffffffffff166124e9565b506122d6600b6000601360008a815260200190815260200160002060009054906101000a900473ffffffffffffffffffffffffffffffffffffffff1673ffffffffffffffffffffffffffffffffffffffff1673ffffffffffffffffffffffffffffffffffffffff1681526020019081526020016000208561251e565b507f3c08fa69f4b246a53562823c11b95ebe25624036343cf37338026a1ffc0832658160405161230691906138f3565b60405180910390a1505050505050565b612321848484611c8e565b61232d84848484612538565b61236c576040517f08c379a000000000000000000000000000000000000000000000000000000000815260040161236390613653565b60405180910390fd5b50505050565b6000600560008473ffffffffffffffffffffffffffffffffffffffff1673ffffffffffffffffffffffffffffffffffffffff16815260200190815260200160002060008373ffffffffffffffffffffffffffffffffffffffff1673ffffffffffffffffffffffffffffffffffffffff16815260200190815260200160002060009054906101000a900460ff16905092915050565b60008484848460405160200161241f94939291906135c3565b6040516020818303038152906040528051906020012060001c9050949350505050565b6000828260405160200161245792919061346f565b60405160208183030381529060405280519060200120905092915050565b505050565b60008260000182815481106124b8577f4e487b7100000000000000000000000000000000000000000000000000000000600052603260045260246000fd5b9060005260206000200154905092915050565b6124e58282604051806020016040528060008152506126cf565b5050565b6000612515846000018460001b8473ffffffffffffffffffffffffffffffffffffffff1660001b61272a565b90509392505050565b6000612530836000018360001b612765565b905092915050565b60006125598473ffffffffffffffffffffffffffffffffffffffff166127d5565b156126c2578373ffffffffffffffffffffffffffffffffffffffff1663150b7a02612582611986565b8786866040518563ffffffff1660e01b81526004016125a494939291906134da565b602060405180830381600087803b1580156125be57600080fd5b505af19250505080156125ef57506040513d601f19601f820116820180604052508101906125ec9190612eca565b60015b612672573d806000811461261f576040519150601f19603f3d011682016040523d82523d6000602084013e612624565b606091505b5060008151141561266a576040517f08c379a000000000000000000000000000000000000000000000000000000000815260040161266190613653565b60405180910390fd5b805181602001fd5b63150b7a0260e01b7bffffffffffffffffffffffffffffffffffffffffffffffffffffffff1916817bffffffffffffffffffffffffffffffffffffffffffffffffffffffff1916149150506126c7565b600190505b949350505050565b6126d983836127e8565b6126e66000848484612538565b612725576040517f08c379a000000000000000000000000000000000000000000000000000000000815260040161271c90613653565b60405180910390fd5b505050565b6000818460020160008581526020019081526020016000208190555061275c83856000016129b690919063ffffffff16565b90509392505050565b600061277183836129cd565b6127ca5782600001829080600181540180825580915050600190039060005260206000200160009091909190915055826000018054905083600101600084815260200190815260200160002081905550600190506127cf565b600090505b92915050565b600080823b905060008111915050919050565b600073ffffffffffffffffffffffffffffffffffffffff168273ffffffffffffffffffffffffffffffffffffffff161415612858576040517f08c379a000000000000000000000000000000000000000000000000000000000815260040161284f906137d3565b60405180910390fd5b6128618161191a565b156128a1576040517f08c379a000000000000000000000000000000000000000000000000000000000815260040161289890613693565b60405180910390fd5b6128ad60008383612475565b6001600360008473ffffffffffffffffffffffffffffffffffffffff1673ffffffffffffffffffffffffffffffffffffffff16815260200190815260200160002060008282546128fd9190613a08565b92505081905550816002600083815260200190815260200160002060006101000a81548173ffffffffffffffffffffffffffffffffffffffff021916908373ffffffffffffffffffffffffffffffffffffffff160217905550808273ffffffffffffffffffffffffffffffffffffffff16600073ffffffffffffffffffffffffffffffffffffffff167fddf252ad1be2c89b69c2b068fc378daa952ba7f163c4a11628f55a4df523b3ef60405160405180910390a45050565b60006129c58360000183612765565b905092915050565b600080836001016000848152602001908152602001600020541415905092915050565b8280546129fc90613b9c565b90600052602060002090601f016020900481019282612a1e5760008555612a65565b82601f10612a3757805160ff1916838001178555612a65565b82800160010185558215612a65579182015b82811115612a64578251825591602001919060010190612a49565b5b509050612a729190612b00565b5090565b604051806040016040528060006004811115612abb577f4e487b7100000000000000000000000000000000000000000000000000000000600052602160045260246000fd5b81526020016000600a811115612afa577f4e487b7100000000000000000000000000000000000000000000000000000000600052602160045260246000fd5b81525090565b5b80821115612b19576000816000905550600101612b01565b5090565b6000612b30612b2b8461394e565b613929565b905082815260208101848484011115612b4857600080fd5b612b53848285613b5a565b509392505050565b6000612b6e612b698461397f565b613929565b905082815260208101848484011115612b8657600080fd5b612b91848285613b5a565b509392505050565b600081359050612ba8816142d9565b92915050565b600081359050612bbd816142f0565b92915050565b600081519050612bd2816142f0565b92915050565b600081359050612be781614307565b92915050565b600081359050612bfc8161431e565b92915050565b600081519050612c118161431e565b92915050565b600082601f830112612c2857600080fd5b8135612c38848260208601612b1d565b91505092915050565b600082601f830112612c5257600080fd5b8135612c62848260208601612b5b565b91505092915050565b600081359050612c7a81614335565b92915050565b600081519050612c8f81614335565b92915050565b600060208284031215612ca757600080fd5b6000612cb584828501612b99565b91505092915050565b60008060408385031215612cd157600080fd5b6000612cdf85828601612b99565b9250506020612cf085828601612b99565b9150509250929050565b600080600060608486031215612d0f57600080fd5b6000612d1d86828701612b99565b9350506020612d2e86828701612b99565b9250506040612d3f86828701612c6b565b9150509250925092565b60008060008060808587031215612d5f57600080fd5b6000612d6d87828801612b99565b9450506020612d7e87828801612b99565b9350506040612d8f87828801612c6b565b925050606085013567ffffffffffffffff811115612dac57600080fd5b612db887828801612c17565b91505092959194509250565b60008060408385031215612dd757600080fd5b6000612de585828601612b99565b9250506020612df685828601612bae565b9150509250929050565b60008060408385031215612e1357600080fd5b6000612e2185828601612b99565b9250506020612e3285828601612c6b565b9150509250929050565b600060208284031215612e4e57600080fd5b6000612e5c84828501612bc3565b91505092915050565b60008060408385031215612e7857600080fd5b6000612e8685828601612bd8565b9250506020612e9785828601612c6b565b9150509250929050565b600060208284031215612eb357600080fd5b6000612ec184828501612bed565b91505092915050565b600060208284031215612edc57600080fd5b6000612eea84828501612c02565b91505092915050565b600060208284031215612f0557600080fd5b6000612f1384828501612c6b565b91505092915050565b600060208284031215612f2e57600080fd5b6000612f3c84828501612c80565b91505092915050565b60008060408385031215612f5857600080fd5b6000612f6685828601612c6b565b925050602083013567ffffffffffffffff811115612f8357600080fd5b612f8f85828601612c41565b9150509250929050565b612fa281613a92565b82525050565b612fb181613aa4565b82525050565b612fc081613ab0565b82525050565b612fd7612fd282613ab0565b613bff565b82525050565b6000612fe8826139c5565b612ff281856139db565b9350613002818560208601613b69565b61300b81613d2f565b840191505092915050565b61301f81613b36565b82525050565b61302e81613b36565b82525050565b61303d81613b48565b82525050565b61304c81613b48565b82525050565b600061305d826139d0565b61306781856139ec565b9350613077818560208601613b69565b61308081613d2f565b840191505092915050565b6000613096826139d0565b6130a081856139fd565b93506130b0818560208601613b69565b80840191505092915050565b600081546130c981613b9c565b6130d381866139fd565b945060018216600081146130ee57600181146130ff57613132565b60ff19831686528186019350613132565b613108856139b0565b60005b8381101561312a5781548189015260018201915060208101905061310b565b838801955050505b50505092915050565b60006131486032836139ec565b915061315382613d40565b604082019050919050565b600061316b6026836139ec565b915061317682613d8f565b604082019050919050565b600061318e601c836139ec565b915061319982613dde565b602082019050919050565b60006131b16016836139ec565b91506131bc82613e07565b602082019050919050565b60006131d46024836139ec565b91506131df82613e30565b604082019050919050565b60006131f76019836139ec565b915061320282613e7f565b602082019050919050565b600061321a602b836139ec565b915061322582613ea8565b604082019050919050565b600061323d601f836139ec565b915061324882613ef7565b602082019050919050565b6000613260602c836139ec565b915061326b82613f20565b604082019050919050565b60006132836038836139ec565b915061328e82613f6f565b604082019050919050565b60006132a6602a836139ec565b91506132b182613fbe565b604082019050919050565b60006132c96029836139ec565b91506132d48261400d565b604082019050919050565b60006132ec6020836139ec565b91506132f78261405c565b602082019050919050565b600061330f602c836139ec565b915061331a82614085565b604082019050919050565b60006133326020836139ec565b915061333d826140d4565b602082019050919050565b60006133556029836139ec565b9150613360826140fd565b604082019050919050565b6000613378602f836139ec565b91506133838261414c565b604082019050919050565b600061339b601f836139ec565b91506133a68261419b565b602082019050919050565b60006133be6021836139ec565b91506133c9826141c4565b604082019050919050565b60006133e16023836139ec565b91506133ec82614213565b604082019050919050565b60006134046031836139ec565b915061340f82614262565b604082019050919050565b6040820160008201516134306000850182613016565b5060208201516134436020850182613034565b50505050565b61345281613b2c565b82525050565b61346961346482613b2c565b613c09565b82525050565b600061347b8285612fc6565b60208201915061348b8284613458565b6020820191508190509392505050565b60006134a7828561308b565b91506134b382846130bc565b91508190509392505050565b60006020820190506134d46000830184612f99565b92915050565b60006080820190506134ef6000830187612f99565b6134fc6020830186612f99565b6135096040830185613449565b818103606083015261351b8184612fdd565b905095945050505050565b600060608201905061353b6000830186612f99565b6135486020830185613449565b818103604083015261355a8184612fdd565b9050949350505050565b60006020820190506135796000830184612fa8565b92915050565b60006020820190506135946000830184612fb7565b92915050565b60006040820190506135af6000830185612fb7565b6135bc6020830184613449565b9392505050565b60006080820190506135d86000830187612fb7565b6135e56020830186613449565b6135f26040830185612f99565b6135ff6060830184613449565b95945050505050565b600060408201905061361d6000830185613025565b61362a6020830184613043565b9392505050565b6000602082019050818103600083015261364b8184613052565b905092915050565b6000602082019050818103600083015261366c8161313b565b9050919050565b6000602082019050818103600083015261368c8161315e565b9050919050565b600060208201905081810360008301526136ac81613181565b9050919050565b600060208201905081810360008301526136cc816131a4565b9050919050565b600060208201905081810360008301526136ec816131c7565b9050919050565b6000602082019050818103600083015261370c816131ea565b9050919050565b6000602082019050818103600083015261372c8161320d565b9050919050565b6000602082019050818103600083015261374c81613230565b9050919050565b6000602082019050818103600083015261376c81613253565b9050919050565b6000602082019050818103600083015261378c81613276565b9050919050565b600060208201905081810360008301526137ac81613299565b9050919050565b600060208201905081810360008301526137cc816132bc565b9050919050565b600060208201905081810360008301526137ec816132df565b9050919050565b6000602082019050818103600083015261380c81613302565b9050919050565b6000602082019050818103600083015261382c81613325565b9050919050565b6000602082019050818103600083015261384c81613348565b9050919050565b6000602082019050818103600083015261386c8161336b565b9050919050565b6000602082019050818103600083015261388c8161338e565b9050919050565b600060208201905081810360008301526138ac816133b1565b9050919050565b600060208201905081810360008301526138cc816133d4565b9050919050565b600060208201905081810360008301526138ec816133f7565b9050919050565b6000604082019050613908600083018461341a565b92915050565b60006020820190506139236000830184613449565b92915050565b6000613933613944565b905061393f8282613bce565b919050565b6000604051905090565b600067ffffffffffffffff82111561396957613968613d00565b5b61397282613d2f565b9050602081019050919050565b600067ffffffffffffffff82111561399a57613999613d00565b5b6139a382613d2f565b9050602081019050919050565b60008190508160005260206000209050919050565b600081519050919050565b600081519050919050565b600082825260208201905092915050565b600082825260208201905092915050565b600081905092915050565b6000613a1382613b2c565b9150613a1e83613b2c565b9250827fffffffffffffffffffffffffffffffffffffffffffffffffffffffffffffffff03821115613a5357613a52613c44565b5b828201905092915050565b6000613a6982613b2c565b9150613a7483613b2c565b925082821015613a8757613a86613c44565b5b828203905092915050565b6000613a9d82613b0c565b9050919050565b60008115159050919050565b6000819050919050565b60007fffffffff0000000000000000000000000000000000000000000000000000000082169050919050565b6000819050613af4826142b1565b919050565b6000819050613b07826142c5565b919050565b600073ffffffffffffffffffffffffffffffffffffffff82169050919050565b6000819050919050565b6000613b4182613ae6565b9050919050565b6000613b5382613af9565b9050919050565b82818337600083830152505050565b60005b83811015613b87578082015181840152602081019050613b6c565b83811115613b96576000848401525b50505050565b60006002820490506001821680613bb457607f821691505b60208210811415613bc857613bc7613cd1565b5b50919050565b613bd782613d2f565b810181811067ffffffffffffffff82111715613bf657613bf5613d00565b5b80604052505050565b6000819050919050565b6000819050919050565b6000613c1e82613b2c565b9150613c2983613b2c565b925082613c3957613c38613c73565b5b828206905092915050565b7f4e487b7100000000000000000000000000000000000000000000000000000000600052601160045260246000fd5b7f4e487b7100000000000000000000000000000000000000000000000000000000600052601260045260246000fd5b7f4e487b7100000000000000000000000000000000000000000000000000000000600052602160045260246000fd5b7f4e487b7100000000000000000000000000000000000000000000000000000000600052602260045260246000fd5b7f4e487b7100000000000000000000000000000000000000000000000000000000600052604160045260246000fd5b6000601f19601f8301169050919050565b7f4552433732313a207472616e7366657220746f206e6f6e20455243373231526560008201527f63656976657220696d706c656d656e7465720000000000000000000000000000602082015250565b7f4f776e61626c653a206e6577206f776e657220697320746865207a65726f206160008201527f6464726573730000000000000000000000000000000000000000000000000000602082015250565b7f4552433732313a20746f6b656e20616c7265616479206d696e74656400000000600082015250565b7f4e6f206d6f726520416e7572616e20746f206d696e7400000000000000000000600082015250565b7f4552433732313a207472616e7366657220746f20746865207a65726f2061646460008201527f7265737300000000000000000000000000000000000000000000000000000000602082015250565b7f4552433732313a20617070726f766520746f2063616c6c657200000000000000600082015250565b7f4e6f7420656e6f756768204c494e4b202d2066696c6c20636f6e74726163742060008201527f7769746820666175636574000000000000000000000000000000000000000000602082015250565b7f45746865722076616c75652073656e74206973206e6f7420636f727265637400600082015250565b7f4552433732313a206f70657261746f7220717565727920666f72206e6f6e657860008201527f697374656e7420746f6b656e0000000000000000000000000000000000000000602082015250565b7f4552433732313a20617070726f76652063616c6c6572206973206e6f74206f7760008201527f6e6572206e6f7220617070726f76656420666f7220616c6c0000000000000000602082015250565b7f4552433732313a2062616c616e636520717565727920666f7220746865207a6560008201527f726f206164647265737300000000000000000000000000000000000000000000602082015250565b7f4552433732313a206f776e657220717565727920666f72206e6f6e657869737460008201527f656e7420746f6b656e0000000000000000000000000000000000000000000000602082015250565b7f4552433732313a206d696e7420746f20746865207a65726f2061646472657373600082015250565b7f4552433732313a20617070726f76656420717565727920666f72206e6f6e657860008201527f697374656e7420746f6b656e0000000000000000000000000000000000000000602082015250565b7f4f776e61626c653a2063616c6c6572206973206e6f7420746865206f776e6572600082015250565b7f4552433732313a207472616e73666572206f6620746f6b656e2074686174206960008201527f73206e6f74206f776e0000000000000000000000000000000000000000000000602082015250565b7f4552433732314d657461646174613a2055524920717565727920666f72206e6f60008201527f6e6578697374656e7420746f6b656e0000000000000000000000000000000000602082015250565b7f4f6e6c7920565246436f6f7264696e61746f722063616e2066756c66696c6c00600082015250565b7f4552433732313a20617070726f76616c20746f2063757272656e74206f776e6560008201527f7200000000000000000000000000000000000000000000000000000000000000602082015250565b7f7468697320746f6b656e205552492068617320616c7265616479206265656e2060008201527f7365740000000000000000000000000000000000000000000000000000000000602082015250565b7f4552433732313a207472616e736665722063616c6c6572206973206e6f74206f60008201527f776e6572206e6f7220617070726f766564000000000000000000000000000000602082015250565b600581106142c2576142c1613ca2565b5b50565b600b81106142d6576142d5613ca2565b5b50565b6142e281613a92565b81146142ed57600080fd5b50565b6142f981613aa4565b811461430457600080fd5b50565b61431081613ab0565b811461431b57600080fd5b50565b61432781613aba565b811461433257600080fd5b50565b61433e81613b2c565b811461434957600080fd5b5056fea2646970667358221220783e2ea3c1f2f836cedfbb69faa4aa4b2349f0b685d4a239c82d821591bab94964736f6c63430008040033",
  "linkReferences": {},
  "deployedLinkReferences": {}
}