{
  "_format": "hh-sol-artifact-1",
  "contractName": "ShoeNFT",
  "sourceName": "contracts/ShoeNFT.sol",
  "abi": [
    {
      "inputs": [
        {
          "internalType": "string",
          "name": "name",
          "type": "string"
        },
        {
          "internalType": "string",
          "name": "symbol",
          "type": "string"
        },
        {
          "internalType": "contract IERC20",
          "name": "token",
          "type": "address"
        }
      ],
      "stateMutability": "nonpayable",
      "type": "constructor"
    },
    {
      "anonymous": false,
      "inputs": [
        {
          "indexed": true,
          "internalType": "address",
          "name": "owner",
          "type": "address"
        },
        {
          "indexed": true,
          "internalType": "address",
          "name": "approved",
          "type": "address"
        },
        {
          "indexed": true,
          "internalType": "uint256",
          "name": "tokenId",
          "type": "uint256"
        }
      ],
      "name": "Approval",
      "type": "event"
    },
    {
      "anonymous": false,
      "inputs": [
        {
          "indexed": true,
          "internalType": "address",
          "name": "owner",
          "type": "address"
        },
        {
          "indexed": true,
          "internalType": "address",
          "name": "operator",
          "type": "address"
        },
        {
          "indexed": false,
          "internalType": "bool",
          "name": "approved",
          "type": "bool"
        }
      ],
      "name": "ApprovalForAll",
      "type": "event"
    },
    {
      "anonymous": false,
      "inputs": [
        {
          "indexed": true,
          "internalType": "address",
          "name": "previousOwner",
          "type": "address"
        },
        {
          "indexed": true,
          "internalType": "address",
          "name": "newOwner",
          "type": "address"
        }
      ],
      "name": "OwnershipTransferred",
      "type": "event"
    },
    {
      "anonymous": false,
      "inputs": [
        {
          "indexed": true,
          "internalType": "address",
          "name": "from",
          "type": "address"
        },
        {
          "indexed": true,
          "internalType": "address",
          "name": "to",
          "type": "address"
        },
        {
          "indexed": true,
          "internalType": "uint256",
          "name": "tokenId",
          "type": "uint256"
        }
      ],
      "name": "Transfer",
      "type": "event"
    },
    {
      "inputs": [],
      "name": "MAX_SHOES",
      "outputs": [
        {
          "internalType": "uint256",
          "name": "",
          "type": "uint256"
        }
      ],
      "stateMutability": "view",
      "type": "function"
    },
    {
      "inputs": [
        {
          "internalType": "address",
          "name": "to",
          "type": "address"
        },
        {
          "internalType": "uint256",
          "name": "tokenId",
          "type": "uint256"
        }
      ],
      "name": "approve",
      "outputs": [],
      "stateMutability": "nonpayable",
      "type": "function"
    },
    {
      "inputs": [
        {
          "internalType": "address",
          "name": "owner",
          "type": "address"
        }
      ],
      "name": "balanceOf",
      "outputs": [
        {
          "internalType": "uint256",
          "name": "",
          "type": "uint256"
        }
      ],
      "stateMutability": "view",
      "type": "function"
    },
    {
      "inputs": [],
      "name": "buy",
      "outputs": [],
      "stateMutability": "payable",
      "type": "function"
    },
    {
      "inputs": [],
      "name": "currentShoes",
      "outputs": [
        {
          "internalType": "uint256",
          "name": "",
          "type": "uint256"
        }
      ],
      "stateMutability": "view",
      "type": "function"
    },
    {
      "inputs": [
        {
          "internalType": "uint256",
          "name": "tokenId",
          "type": "uint256"
        }
      ],
      "name": "getApproved",
      "outputs": [
        {
          "internalType": "address",
          "name": "",
          "type": "address"
        }
      ],
      "stateMutability": "view",
      "type": "function"
    },
    {
      "inputs": [
        {
          "internalType": "address",
          "name": "owner",
          "type": "address"
        },
        {
          "internalType": "address",
          "name": "operator",
          "type": "address"
        }
      ],
      "name": "isApprovedForAll",
      "outputs": [
        {
          "internalType": "bool",
          "name": "",
          "type": "bool"
        }
      ],
      "stateMutability": "view",
      "type": "function"
    },
    {
      "inputs": [],
      "name": "name",
      "outputs": [
        {
          "internalType": "string",
          "name": "",
          "type": "string"
        }
      ],
      "stateMutability": "view",
      "type": "function"
    },
    {
      "inputs": [],
      "name": "owner",
      "outputs": [
        {
          "internalType": "address",
          "name": "",
          "type": "address"
        }
      ],
      "stateMutability": "view",
      "type": "function"
    },
    {
      "inputs": [
        {
          "internalType": "uint256",
          "name": "tokenId",
          "type": "uint256"
        }
      ],
      "name": "ownerOf",
      "outputs": [
        {
          "internalType": "address",
          "name": "",
          "type": "address"
        }
      ],
      "stateMutability": "view",
      "type": "function"
    },
    {
      "inputs": [],
      "name": "renounceOwnership",
      "outputs": [],
      "stateMutability": "nonpayable",
      "type": "function"
    },
    {
      "inputs": [
        {
          "internalType": "address",
          "name": "from",
          "type": "address"
        },
        {
          "internalType": "address",
          "name": "to",
          "type": "address"
        },
        {
          "internalType": "uint256",
          "name": "tokenId",
          "type": "uint256"
        }
      ],
      "name": "safeTransferFrom",
      "outputs": [],
      "stateMutability": "nonpayable",
      "type": "function"
    },
    {
      "inputs": [
        {
          "internalType": "address",
          "name": "from",
          "type": "address"
        },
        {
          "internalType": "address",
          "name": "to",
          "type": "address"
        },
        {
          "internalType": "uint256",
          "name": "tokenId",
          "type": "uint256"
        },
        {
          "internalType": "bytes",
          "name": "_data",
          "type": "bytes"
        }
      ],
      "name": "safeTransferFrom",
      "outputs": [],
      "stateMutability": "nonpayable",
      "type": "function"
    },
    {
      "inputs": [
        {
          "internalType": "address",
          "name": "operator",
          "type": "address"
        },
        {
          "internalType": "bool",
          "name": "approved",
          "type": "bool"
        }
      ],
      "name": "setApprovalForAll",
      "outputs": [],
      "stateMutability": "nonpayable",
      "type": "function"
    },
    {
      "inputs": [],
      "name": "shoePrice",
      "outputs": [
        {
          "internalType": "uint256",
          "name": "",
          "type": "uint256"
        }
      ],
      "stateMutability": "view",
      "type": "function"
    },
    {
      "inputs": [
        {
          "internalType": "bytes4",
          "name": "interfaceId",
          "type": "bytes4"
        }
      ],
      "name": "supportsInterface",
      "outputs": [
        {
          "internalType": "bool",
          "name": "",
          "type": "bool"
        }
      ],
      "stateMutability": "view",
      "type": "function"
    },
    {
      "inputs": [],
      "name": "symbol",
      "outputs": [
        {
          "internalType": "string",
          "name": "",
          "type": "string"
        }
      ],
      "stateMutability": "view",
      "type": "function"
    },
    {
      "inputs": [],
      "name": "tokenURI",
      "outputs": [
        {
          "internalType": "string",
          "name": "",
          "type": "string"
        }
      ],
      "stateMutability": "pure",
      "type": "function"
    },
    {
      "inputs": [
        {
          "internalType": "uint256",
          "name": "tokenId",
          "type": "uint256"
        }
      ],
      "name": "tokenURI",
      "outputs": [
        {
          "internalType": "string",
          "name": "",
          "type": "string"
        }
      ],
      "stateMutability": "view",
      "type": "function"
    },
    {
      "inputs": [],
      "name": "totalSupply",
      "outputs": [
        {
          "internalType": "uint256",
          "name": "",
          "type": "uint256"
        }
      ],
      "stateMutability": "view",
      "type": "function"
    },
    {
      "inputs": [
        {
          "internalType": "address",
          "name": "from",
          "type": "address"
        },
        {
          "internalType": "address",
          "name": "to",
          "type": "address"
        },
        {
          "internalType": "uint256",
          "name": "tokenId",
          "type": "uint256"
        }
      ],
      "name": "transferFrom",
      "outputs": [],
      "stateMutability": "nonpayable",
      "type": "function"
    },
    {
      "inputs": [
        {
          "internalType": "address",
          "name": "newOwner",
          "type": "address"
        }
      ],
      "name": "transferOwnership",
      "outputs": [],
      "stateMutability": "nonpayable",
      "type": "function"
    }
  ],
  "bytecode": "0x608060405260006008553480156200001657600080fd5b50604051620034e8380380620034e883398181016040528101906200003c9190620002e3565b8282816000908051906020019062000056929190620001aa565b5080600190805190602001906200006f929190620001aa565b5050506200009262000086620000dc60201b60201c565b620000e460201b60201c565b80600760006101000a81548173ffffffffffffffffffffffffffffffffffffffff021916908373ffffffffffffffffffffffffffffffffffffffff1602179055505050506200053d565b600033905090565b6000600660009054906101000a900473ffffffffffffffffffffffffffffffffffffffff16905081600660006101000a81548173ffffffffffffffffffffffffffffffffffffffff021916908373ffffffffffffffffffffffffffffffffffffffff1602179055508173ffffffffffffffffffffffffffffffffffffffff168173ffffffffffffffffffffffffffffffffffffffff167f8be0079c531659141344cd1fd0a4f28419497f9722a3daafe3b4186f6b6457e060405160405180910390a35050565b828054620001b89062000448565b90600052602060002090601f016020900481019282620001dc576000855562000228565b82601f10620001f757805160ff191683800117855562000228565b8280016001018555821562000228579182015b82811115620002275782518255916020019190600101906200020a565b5b5090506200023791906200023b565b5090565b5b80821115620002565760008160009055506001016200023c565b5090565b6000620002716200026b8462000394565b6200036b565b9050828152602081018484840111156200028a57600080fd5b6200029784828562000412565b509392505050565b600081519050620002b08162000523565b92915050565b600082601f830112620002c857600080fd5b8151620002da8482602086016200025a565b91505092915050565b600080600060608486031215620002f957600080fd5b600084015167ffffffffffffffff8111156200031457600080fd5b6200032286828701620002b6565b935050602084015167ffffffffffffffff8111156200034057600080fd5b6200034e86828701620002b6565b925050604062000361868287016200029f565b9150509250925092565b6000620003776200038a565b90506200038582826200047e565b919050565b6000604051905090565b600067ffffffffffffffff821115620003b257620003b1620004e3565b5b620003bd8262000512565b9050602081019050919050565b6000620003d782620003f2565b9050919050565b6000620003eb82620003ca565b9050919050565b600073ffffffffffffffffffffffffffffffffffffffff82169050919050565b60005b838110156200043257808201518184015260208101905062000415565b8381111562000442576000848401525b50505050565b600060028204905060018216806200046157607f821691505b60208210811415620004785762000477620004b4565b5b50919050565b620004898262000512565b810181811067ffffffffffffffff82111715620004ab57620004aa620004e3565b5b80604052505050565b7f4e487b7100000000000000000000000000000000000000000000000000000000600052602260045260246000fd5b7f4e487b7100000000000000000000000000000000000000000000000000000000600052604160045260246000fd5b6000601f19601f8301169050919050565b6200052e81620003de565b81146200053a57600080fd5b50565b612f9b806200054d6000396000f3fe6080604052600436106101355760003560e01c80638da5cb5b116100ab578063bd9a494d1161006f578063bd9a494d146103f3578063bf336f521461041e578063c87b56dd14610449578063e985e9c514610486578063f2fde38b146104c3578063ffe1770e146104ec57610135565b80638da5cb5b1461034157806395d89b411461036c578063a22cb46514610397578063a6f2ae3a146103c0578063b88d4fde146103ca57610135565b806323b872dd116100fd57806323b872dd146102335780633c130d901461025c57806342842e0e146102875780636352211e146102b057806370a08231146102ed578063715018a61461032a57610135565b806301ffc9a71461013a57806306fdde0314610177578063081812fc146101a2578063095ea7b3146101df57806318160ddd14610208575b600080fd5b34801561014657600080fd5b50610161600480360381019061015c9190611ef2565b610517565b60405161016e9190612361565b60405180910390f35b34801561018357600080fd5b5061018c6105f9565b604051610199919061237c565b60405180910390f35b3480156101ae57600080fd5b506101c960048036038101906101c49190611f44565b61068b565b6040516101d691906122fa565b60405180910390f35b3480156101eb57600080fd5b5061020660048036038101906102019190611eb6565b610710565b005b34801561021457600080fd5b5061021d610828565b60405161022a91906125fe565b60405180910390f35b34801561023f57600080fd5b5061025a60048036038101906102559190611db0565b610832565b005b34801561026857600080fd5b50610271610892565b60405161027e919061237c565b60405180910390f35b34801561029357600080fd5b506102ae60048036038101906102a99190611db0565b6108b2565b005b3480156102bc57600080fd5b506102d760048036038101906102d29190611f44565b6108d2565b6040516102e491906122fa565b60405180910390f35b3480156102f957600080fd5b50610314600480360381019061030f9190611d4b565b610984565b60405161032191906125fe565b60405180910390f35b34801561033657600080fd5b5061033f610a3c565b005b34801561034d57600080fd5b50610356610ac4565b60405161036391906122fa565b60405180910390f35b34801561037857600080fd5b50610381610aee565b60405161038e919061237c565b60405180910390f35b3480156103a357600080fd5b506103be60048036038101906103b99190611e7a565b610b80565b005b6103c8610d01565b005b3480156103d657600080fd5b506103f160048036038101906103ec9190611dff565b610e21565b005b3480156103ff57600080fd5b50610408610e83565b60405161041591906125fe565b60405180910390f35b34801561042a57600080fd5b50610433610e89565b60405161044091906125fe565b60405180910390f35b34801561045557600080fd5b50610470600480360381019061046b9190611f44565b610e8f565b60405161047d919061237c565b60405180910390f35b34801561049257600080fd5b506104ad60048036038101906104a89190611d74565b610f36565b6040516104ba9190612361565b60405180910390f35b3480156104cf57600080fd5b506104ea60048036038101906104e59190611d4b565b610fca565b005b3480156104f857600080fd5b506105016110c2565b60405161050e91906125fe565b60405180910390f35b60007f80ac58cd000000000000000000000000000000000000000000000000000000007bffffffffffffffffffffffffffffffffffffffffffffffffffffffff1916827bffffffffffffffffffffffffffffffffffffffffffffffffffffffff191614806105e257507f5b5e139f000000000000000000000000000000000000000000000000000000007bffffffffffffffffffffffffffffffffffffffffffffffffffffffff1916827bffffffffffffffffffffffffffffffffffffffffffffffffffffffff1916145b806105f257506105f1826110cd565b5b9050919050565b60606000805461060890612823565b80601f016020809104026020016040519081016040528092919081815260200182805461063490612823565b80156106815780601f1061065657610100808354040283529160200191610681565b820191906000526020600020905b81548152906001019060200180831161066457829003601f168201915b5050505050905090565b600061069682611137565b6106d5576040517f08c379a00000000000000000000000000000000000000000000000000000000081526004016106cc906124fe565b60405180910390fd5b6004600083815260200190815260200160002060009054906101000a900473ffffffffffffffffffffffffffffffffffffffff169050919050565b600061071b826108d2565b90508073ffffffffffffffffffffffffffffffffffffffff168373ffffffffffffffffffffffffffffffffffffffff16141561078c576040517f08c379a00000000000000000000000000000000000000000000000000000000081526004016107839061257e565b60405180910390fd5b8073ffffffffffffffffffffffffffffffffffffffff166107ab6111a3565b73ffffffffffffffffffffffffffffffffffffffff1614806107da57506107d9816107d46111a3565b610f36565b5b610819576040517f08c379a00000000000000000000000000000000000000000000000000000000081526004016108109061247e565b60405180910390fd5b61082383836111ab565b505050565b6000600854905090565b61084361083d6111a3565b82611264565b610882576040517f08c379a00000000000000000000000000000000000000000000000000000000081526004016108799061259e565b60405180910390fd5b61088d838383611342565b505050565b6060604051806080016040528060438152602001612f2360439139905090565b6108cd83838360405180602001604052806000815250610e21565b505050565b6000806002600084815260200190815260200160002060009054906101000a900473ffffffffffffffffffffffffffffffffffffffff169050600073ffffffffffffffffffffffffffffffffffffffff168173ffffffffffffffffffffffffffffffffffffffff16141561097b576040517f08c379a0000000000000000000000000000000000000000000000000000000008152600401610972906124be565b60405180910390fd5b80915050919050565b60008073ffffffffffffffffffffffffffffffffffffffff168273ffffffffffffffffffffffffffffffffffffffff1614156109f5576040517f08c379a00000000000000000000000000000000000000000000000000000000081526004016109ec9061249e565b60405180910390fd5b600360008373ffffffffffffffffffffffffffffffffffffffff1673ffffffffffffffffffffffffffffffffffffffff168152602001908152602001600020549050919050565b610a446111a3565b73ffffffffffffffffffffffffffffffffffffffff16610a62610ac4565b73ffffffffffffffffffffffffffffffffffffffff1614610ab8576040517f08c379a0000000000000000000000000000000000000000000000000000000008152600401610aaf9061251e565b60405180910390fd5b610ac2600061159e565b565b6000600660009054906101000a900473ffffffffffffffffffffffffffffffffffffffff16905090565b606060018054610afd90612823565b80601f0160208091040260200160405190810160405280929190818152602001828054610b2990612823565b8015610b765780601f10610b4b57610100808354040283529160200191610b76565b820191906000526020600020905b815481529060010190602001808311610b5957829003601f168201915b5050505050905090565b610b886111a3565b73ffffffffffffffffffffffffffffffffffffffff168273ffffffffffffffffffffffffffffffffffffffff161415610bf6576040517f08c379a0000000000000000000000000000000000000000000000000000000008152600401610bed9061241e565b60405180910390fd5b8060056000610c036111a3565b73ffffffffffffffffffffffffffffffffffffffff1673ffffffffffffffffffffffffffffffffffffffff16815260200190815260200160002060008473ffffffffffffffffffffffffffffffffffffffff1673ffffffffffffffffffffffffffffffffffffffff16815260200190815260200160002060006101000a81548160ff0219169083151502179055508173ffffffffffffffffffffffffffffffffffffffff16610cb06111a3565b73ffffffffffffffffffffffffffffffffffffffff167f17307eab39ab6107e8899845ad3d59bd9653f200f220920489ca2b5937696c3183604051610cf59190612361565b60405180910390a35050565b6103e86001610d0e610828565b610d1891906126b2565b1115610d59576040517f08c379a0000000000000000000000000000000000000000000000000000000008152600401610d50906125be565b60405180910390fd5b6000610d6433610984565b14610da4576040517f08c379a0000000000000000000000000000000000000000000000000000000008152600401610d9b906125de565b60405180910390fd5b34662386f26fc100001115610dee576040517f08c379a0000000000000000000000000000000000000000000000000000000008152600401610de59061243e565b60405180910390fd5b6000610df8610828565b9050610e043382611664565b600160086000828254610e1791906126b2565b9250508190555050565b610e32610e2c6111a3565b83611264565b610e71576040517f08c379a0000000000000000000000000000000000000000000000000000000008152600401610e689061259e565b60405180910390fd5b610e7d84848484611682565b50505050565b60085481565b6103e881565b6060610e9a82611137565b610ed9576040517f08c379a0000000000000000000000000000000000000000000000000000000008152600401610ed09061255e565b60405180910390fd5b6000610ee36116de565b90506000815111610f035760405180602001604052806000815250610f2e565b80610f0d846116f5565b604051602001610f1e9291906122d6565b6040516020818303038152906040525b915050919050565b6000600560008473ffffffffffffffffffffffffffffffffffffffff1673ffffffffffffffffffffffffffffffffffffffff16815260200190815260200160002060008373ffffffffffffffffffffffffffffffffffffffff1673ffffffffffffffffffffffffffffffffffffffff16815260200190815260200160002060009054906101000a900460ff16905092915050565b610fd26111a3565b73ffffffffffffffffffffffffffffffffffffffff16610ff0610ac4565b73ffffffffffffffffffffffffffffffffffffffff1614611046576040517f08c379a000000000000000000000000000000000000000000000000000000000815260040161103d9061251e565b60405180910390fd5b600073ffffffffffffffffffffffffffffffffffffffff168173ffffffffffffffffffffffffffffffffffffffff1614156110b6576040517f08c379a00000000000000000000000000000000000000000000000000000000081526004016110ad906123be565b60405180910390fd5b6110bf8161159e565b50565b662386f26fc1000081565b60007f01ffc9a7000000000000000000000000000000000000000000000000000000007bffffffffffffffffffffffffffffffffffffffffffffffffffffffff1916827bffffffffffffffffffffffffffffffffffffffffffffffffffffffff1916149050919050565b60008073ffffffffffffffffffffffffffffffffffffffff166002600084815260200190815260200160002060009054906101000a900473ffffffffffffffffffffffffffffffffffffffff1673ffffffffffffffffffffffffffffffffffffffff1614159050919050565b600033905090565b816004600083815260200190815260200160002060006101000a81548173ffffffffffffffffffffffffffffffffffffffff021916908373ffffffffffffffffffffffffffffffffffffffff160217905550808273ffffffffffffffffffffffffffffffffffffffff1661121e836108d2565b73ffffffffffffffffffffffffffffffffffffffff167f8c5be1e5ebec7d5bd14f71427d1e84f3dd0314c0f7b2291e5b200ac8c7c3b92560405160405180910390a45050565b600061126f82611137565b6112ae576040517f08c379a00000000000000000000000000000000000000000000000000000000081526004016112a59061245e565b60405180910390fd5b60006112b9836108d2565b90508073ffffffffffffffffffffffffffffffffffffffff168473ffffffffffffffffffffffffffffffffffffffff16148061132857508373ffffffffffffffffffffffffffffffffffffffff166113108461068b565b73ffffffffffffffffffffffffffffffffffffffff16145b8061133957506113388185610f36565b5b91505092915050565b8273ffffffffffffffffffffffffffffffffffffffff16611362826108d2565b73ffffffffffffffffffffffffffffffffffffffff16146113b8576040517f08c379a00000000000000000000000000000000000000000000000000000000081526004016113af9061253e565b60405180910390fd5b600073ffffffffffffffffffffffffffffffffffffffff168273ffffffffffffffffffffffffffffffffffffffff161415611428576040517f08c379a000000000000000000000000000000000000000000000000000000000815260040161141f906123fe565b60405180910390fd5b6114338383836118a2565b61143e6000826111ab565b6001600360008573ffffffffffffffffffffffffffffffffffffffff1673ffffffffffffffffffffffffffffffffffffffff168152602001908152602001600020600082825461148e9190612739565b925050819055506001600360008473ffffffffffffffffffffffffffffffffffffffff1673ffffffffffffffffffffffffffffffffffffffff16815260200190815260200160002060008282546114e591906126b2565b92505081905550816002600083815260200190815260200160002060006101000a81548173ffffffffffffffffffffffffffffffffffffffff021916908373ffffffffffffffffffffffffffffffffffffffff160217905550808273ffffffffffffffffffffffffffffffffffffffff168473ffffffffffffffffffffffffffffffffffffffff167fddf252ad1be2c89b69c2b068fc378daa952ba7f163c4a11628f55a4df523b3ef60405160405180910390a4505050565b6000600660009054906101000a900473ffffffffffffffffffffffffffffffffffffffff16905081600660006101000a81548173ffffffffffffffffffffffffffffffffffffffff021916908373ffffffffffffffffffffffffffffffffffffffff1602179055508173ffffffffffffffffffffffffffffffffffffffff168173ffffffffffffffffffffffffffffffffffffffff167f8be0079c531659141344cd1fd0a4f28419497f9722a3daafe3b4186f6b6457e060405160405180910390a35050565b61167e8282604051806020016040528060008152506118a7565b5050565b61168d848484611342565b61169984848484611902565b6116d8576040517f08c379a00000000000000000000000000000000000000000000000000000000081526004016116cf9061239e565b60405180910390fd5b50505050565b606060405180602001604052806000815250905090565b6060600082141561173d576040518060400160405280600181526020017f3000000000000000000000000000000000000000000000000000000000000000815250905061189d565b600082905060005b6000821461176f57808061175890612886565b915050600a826117689190612708565b9150611745565b60008167ffffffffffffffff8111156117b1577f4e487b7100000000000000000000000000000000000000000000000000000000600052604160045260246000fd5b6040519080825280601f01601f1916602001820160405280156117e35781602001600182028036833780820191505090505b5090505b60008514611896576001826117fc9190612739565b9150600a8561180b91906128cf565b603061181791906126b2565b60f81b818381518110611853577f4e487b7100000000000000000000000000000000000000000000000000000000600052603260045260246000fd5b60200101907effffffffffffffffffffffffffffffffffffffffffffffffffffffffffffff1916908160001a905350600a8561188f9190612708565b94506117e7565b8093505050505b919050565b505050565b6118b18383611a99565b6118be6000848484611902565b6118fd576040517f08c379a00000000000000000000000000000000000000000000000000000000081526004016118f49061239e565b60405180910390fd5b505050565b60006119238473ffffffffffffffffffffffffffffffffffffffff16611c67565b15611a8c578373ffffffffffffffffffffffffffffffffffffffff1663150b7a0261194c6111a3565b8786866040518563ffffffff1660e01b815260040161196e9493929190612315565b602060405180830381600087803b15801561198857600080fd5b505af19250505080156119b957506040513d601f19601f820116820180604052508101906119b69190611f1b565b60015b611a3c573d80600081146119e9576040519150601f19603f3d011682016040523d82523d6000602084013e6119ee565b606091505b50600081511415611a34576040517f08c379a0000000000000000000000000000000000000000000000000000000008152600401611a2b9061239e565b60405180910390fd5b805181602001fd5b63150b7a0260e01b7bffffffffffffffffffffffffffffffffffffffffffffffffffffffff1916817bffffffffffffffffffffffffffffffffffffffffffffffffffffffff191614915050611a91565b600190505b949350505050565b600073ffffffffffffffffffffffffffffffffffffffff168273ffffffffffffffffffffffffffffffffffffffff161415611b09576040517f08c379a0000000000000000000000000000000000000000000000000000000008152600401611b00906124de565b60405180910390fd5b611b1281611137565b15611b52576040517f08c379a0000000000000000000000000000000000000000000000000000000008152600401611b49906123de565b60405180910390fd5b611b5e600083836118a2565b6001600360008473ffffffffffffffffffffffffffffffffffffffff1673ffffffffffffffffffffffffffffffffffffffff1681526020019081526020016000206000828254611bae91906126b2565b92505081905550816002600083815260200190815260200160002060006101000a81548173ffffffffffffffffffffffffffffffffffffffff021916908373ffffffffffffffffffffffffffffffffffffffff160217905550808273ffffffffffffffffffffffffffffffffffffffff16600073ffffffffffffffffffffffffffffffffffffffff167fddf252ad1be2c89b69c2b068fc378daa952ba7f163c4a11628f55a4df523b3ef60405160405180910390a45050565b600080823b905060008111915050919050565b6000611c8d611c888461263e565b612619565b905082815260208101848484011115611ca557600080fd5b611cb08482856127e1565b509392505050565b600081359050611cc781612ec6565b92915050565b600081359050611cdc81612edd565b92915050565b600081359050611cf181612ef4565b92915050565b600081519050611d0681612ef4565b92915050565b600082601f830112611d1d57600080fd5b8135611d2d848260208601611c7a565b91505092915050565b600081359050611d4581612f0b565b92915050565b600060208284031215611d5d57600080fd5b6000611d6b84828501611cb8565b91505092915050565b60008060408385031215611d8757600080fd5b6000611d9585828601611cb8565b9250506020611da685828601611cb8565b9150509250929050565b600080600060608486031215611dc557600080fd5b6000611dd386828701611cb8565b9350506020611de486828701611cb8565b9250506040611df586828701611d36565b9150509250925092565b60008060008060808587031215611e1557600080fd5b6000611e2387828801611cb8565b9450506020611e3487828801611cb8565b9350506040611e4587828801611d36565b925050606085013567ffffffffffffffff811115611e6257600080fd5b611e6e87828801611d0c565b91505092959194509250565b60008060408385031215611e8d57600080fd5b6000611e9b85828601611cb8565b9250506020611eac85828601611ccd565b9150509250929050565b60008060408385031215611ec957600080fd5b6000611ed785828601611cb8565b9250506020611ee885828601611d36565b9150509250929050565b600060208284031215611f0457600080fd5b6000611f1284828501611ce2565b91505092915050565b600060208284031215611f2d57600080fd5b6000611f3b84828501611cf7565b91505092915050565b600060208284031215611f5657600080fd5b6000611f6484828501611d36565b91505092915050565b611f768161276d565b82525050565b611f858161277f565b82525050565b6000611f968261266f565b611fa08185612685565b9350611fb08185602086016127f0565b611fb9816129bc565b840191505092915050565b6000611fcf8261267a565b611fd98185612696565b9350611fe98185602086016127f0565b611ff2816129bc565b840191505092915050565b60006120088261267a565b61201281856126a7565b93506120228185602086016127f0565b80840191505092915050565b600061203b603283612696565b9150612046826129cd565b604082019050919050565b600061205e602683612696565b915061206982612a1c565b604082019050919050565b6000612081601c83612696565b915061208c82612a6b565b602082019050919050565b60006120a4602483612696565b91506120af82612a94565b604082019050919050565b60006120c7601983612696565b91506120d282612ae3565b602082019050919050565b60006120ea601f83612696565b91506120f582612b0c565b602082019050919050565b600061210d602c83612696565b915061211882612b35565b604082019050919050565b6000612130603883612696565b915061213b82612b84565b604082019050919050565b6000612153602a83612696565b915061215e82612bd3565b604082019050919050565b6000612176602983612696565b915061218182612c22565b604082019050919050565b6000612199602083612696565b91506121a482612c71565b602082019050919050565b60006121bc602c83612696565b91506121c782612c9a565b604082019050919050565b60006121df602083612696565b91506121ea82612ce9565b602082019050919050565b6000612202602983612696565b915061220d82612d12565b604082019050919050565b6000612225602f83612696565b915061223082612d61565b604082019050919050565b6000612248602183612696565b915061225382612db0565b604082019050919050565b600061226b603183612696565b915061227682612dff565b604082019050919050565b600061228e602183612696565b915061229982612e4e565b604082019050919050565b60006122b1601d83612696565b91506122bc82612e9d565b602082019050919050565b6122d0816127d7565b82525050565b60006122e28285611ffd565b91506122ee8284611ffd565b91508190509392505050565b600060208201905061230f6000830184611f6d565b92915050565b600060808201905061232a6000830187611f6d565b6123376020830186611f6d565b61234460408301856122c7565b81810360608301526123568184611f8b565b905095945050505050565b60006020820190506123766000830184611f7c565b92915050565b600060208201905081810360008301526123968184611fc4565b905092915050565b600060208201905081810360008301526123b78161202e565b9050919050565b600060208201905081810360008301526123d781612051565b9050919050565b600060208201905081810360008301526123f781612074565b9050919050565b6000602082019050818103600083015261241781612097565b9050919050565b60006020820190508181036000830152612437816120ba565b9050919050565b60006020820190508181036000830152612457816120dd565b9050919050565b6000602082019050818103600083015261247781612100565b9050919050565b6000602082019050818103600083015261249781612123565b9050919050565b600060208201905081810360008301526124b781612146565b9050919050565b600060208201905081810360008301526124d781612169565b9050919050565b600060208201905081810360008301526124f78161218c565b9050919050565b60006020820190508181036000830152612517816121af565b9050919050565b60006020820190508181036000830152612537816121d2565b9050919050565b60006020820190508181036000830152612557816121f5565b9050919050565b6000602082019050818103600083015261257781612218565b9050919050565b600060208201905081810360008301526125978161223b565b9050919050565b600060208201905081810360008301526125b78161225e565b9050919050565b600060208201905081810360008301526125d781612281565b9050919050565b600060208201905081810360008301526125f7816122a4565b9050919050565b600060208201905061261360008301846122c7565b92915050565b6000612623612634565b905061262f8282612855565b919050565b6000604051905090565b600067ffffffffffffffff8211156126595761265861298d565b5b612662826129bc565b9050602081019050919050565b600081519050919050565b600081519050919050565b600082825260208201905092915050565b600082825260208201905092915050565b600081905092915050565b60006126bd826127d7565b91506126c8836127d7565b9250827fffffffffffffffffffffffffffffffffffffffffffffffffffffffffffffffff038211156126fd576126fc612900565b5b828201905092915050565b6000612713826127d7565b915061271e836127d7565b92508261272e5761272d61292f565b5b828204905092915050565b6000612744826127d7565b915061274f836127d7565b92508282101561276257612761612900565b5b828203905092915050565b6000612778826127b7565b9050919050565b60008115159050919050565b60007fffffffff0000000000000000000000000000000000000000000000000000000082169050919050565b600073ffffffffffffffffffffffffffffffffffffffff82169050919050565b6000819050919050565b82818337600083830152505050565b60005b8381101561280e5780820151818401526020810190506127f3565b8381111561281d576000848401525b50505050565b6000600282049050600182168061283b57607f821691505b6020821081141561284f5761284e61295e565b5b50919050565b61285e826129bc565b810181811067ffffffffffffffff8211171561287d5761287c61298d565b5b80604052505050565b6000612891826127d7565b91507fffffffffffffffffffffffffffffffffffffffffffffffffffffffffffffffff8214156128c4576128c3612900565b5b600182019050919050565b60006128da826127d7565b91506128e5836127d7565b9250826128f5576128f461292f565b5b828206905092915050565b7f4e487b7100000000000000000000000000000000000000000000000000000000600052601160045260246000fd5b7f4e487b7100000000000000000000000000000000000000000000000000000000600052601260045260246000fd5b7f4e487b7100000000000000000000000000000000000000000000000000000000600052602260045260246000fd5b7f4e487b7100000000000000000000000000000000000000000000000000000000600052604160045260246000fd5b6000601f19601f8301169050919050565b7f4552433732313a207472616e7366657220746f206e6f6e20455243373231526560008201527f63656976657220696d706c656d656e7465720000000000000000000000000000602082015250565b7f4f776e61626c653a206e6577206f776e657220697320746865207a65726f206160008201527f6464726573730000000000000000000000000000000000000000000000000000602082015250565b7f4552433732313a20746f6b656e20616c7265616479206d696e74656400000000600082015250565b7f4552433732313a207472616e7366657220746f20746865207a65726f2061646460008201527f7265737300000000000000000000000000000000000000000000000000000000602082015250565b7f4552433732313a20617070726f766520746f2063616c6c657200000000000000600082015250565b7f45746865722076616c75652073656e74206973206e6f7420636f727265637400600082015250565b7f4552433732313a206f70657261746f7220717565727920666f72206e6f6e657860008201527f697374656e7420746f6b656e0000000000000000000000000000000000000000602082015250565b7f4552433732313a20617070726f76652063616c6c6572206973206e6f74206f7760008201527f6e6572206e6f7220617070726f76656420666f7220616c6c0000000000000000602082015250565b7f4552433732313a2062616c616e636520717565727920666f7220746865207a6560008201527f726f206164647265737300000000000000000000000000000000000000000000602082015250565b7f4552433732313a206f776e657220717565727920666f72206e6f6e657869737460008201527f656e7420746f6b656e0000000000000000000000000000000000000000000000602082015250565b7f4552433732313a206d696e7420746f20746865207a65726f2061646472657373600082015250565b7f4552433732313a20617070726f76656420717565727920666f72206e6f6e657860008201527f697374656e7420746f6b656e0000000000000000000000000000000000000000602082015250565b7f4f776e61626c653a2063616c6c6572206973206e6f7420746865206f776e6572600082015250565b7f4552433732313a207472616e73666572206f6620746f6b656e2074686174206960008201527f73206e6f74206f776e0000000000000000000000000000000000000000000000602082015250565b7f4552433732314d657461646174613a2055524920717565727920666f72206e6f60008201527f6e6578697374656e7420746f6b656e0000000000000000000000000000000000602082015250565b7f4552433732313a20617070726f76616c20746f2063757272656e74206f776e6560008201527f7200000000000000000000000000000000000000000000000000000000000000602082015250565b7f4552433732313a207472616e736665722063616c6c6572206973206e6f74206f60008201527f776e6572206e6f7220617070726f766564000000000000000000000000000000602082015250565b7f43616e206e6f74206d696e74206d6f7265207468616e20313030302073686f6560008201527f7300000000000000000000000000000000000000000000000000000000000000602082015250565b7f4561636820616464726573732063616e206f6e6c7920627579206f6e65000000600082015250565b612ecf8161276d565b8114612eda57600080fd5b50565b612ee68161277f565b8114612ef157600080fd5b50565b612efd8161278b565b8114612f0857600080fd5b50565b612f14816127d7565b8114612f1f57600080fd5b5056fe68747470733a2f2f697066732e696f2f697066732f516d5178476646674c4d3859534e6175764d6a336251457438516544437a38416f63375750766544663162375848a26469706673582212204892b275512c4cb9f3dddfbf55f8de005d746a7f3336f0cb9b5a170ae1b55e5f64736f6c63430008040033",
  "linkReferences": {},
  "deployedLinkReferences": {}
}